:020000041000EA
:10000000002008205D0100101B0100101D010010E0
:100010001101001011010010110100101101001058
:100020001901001019010010190100101F01001022
:10003000110100101901001021010010230100100E
:100040001101001011010010110100101101001028
:100050001101001011010010110100101101001018
:100060001101001011010010110100101101001008
:1000700011010010110100101101001011010010F8
:1000800011010010110100101101001011010010E8
:1000900011010010110100101101001011010010D8
:1000A00011010010110100101101001011010010C8
:1000B00011010010110100101101001011010010B8
:1000C00011010010110100101101001011010010A8
:1000D0001101001011010010110100101101001098
:1000E0001101001011010010110100101101001088
:1000F0001101001011010010110100101101001078
:100100001101001011010010110100101101001067
:10011000EFF30580103800BE00BE00BE00BE00BE7A
:1001200000BE00BEF2EB8871C46B0510E46B0510D5
:10013000A001001090A31AE7D3DEFFFF42012110B7
:10014000FF0100007C7C0500793512AB4FF0000008
:100150001E49086006C881F3088810474FF05040D8
:10016000006810B14FF00000F2E70DA40ECC00299A
:1001700002D000F012F8F9E71549164A002000E015
:1001800001C19142FCD11449884714498847144958
:10019000884700BEFDE701C901C29A42FBD3704700
:1001A000E46B051010010020E0120020B47D051062
:1001B0000000082000000820B47D05100010082071
:1001C00000100820000000007047000008ED00E06B
:1001D000E0120020744F0020C93A001029020010DC
:1001E000C13A0010F8B500BF10B5054C237833B9FB
:1001F000044B13B1044800E000BF0123237010BD7D
:10020000C014002000000000687F011008B5034BF7
:100210001BB10349034800E000BF08BD0000000017
:10022000C4140020687F01102DE9F04F89B000F060
:1002300033FC20B14FF0FF3009B0BDE8F08F054628
:1002400004210C2000F070FC04210D2000F06CFC57
:100250000421122000F068FC0421132000F064FC4B
:1002600004210E2000F060FC04210F2000F05CFC53
:100270000421142000F058FC40F6FF72FF23A94C23
:10028000A94FE267A261C4F89020E262C4F8883006
:100290006362C4F89C30A363C4F884502562C4F838
:1002A0009850636BA14E9BB27B63A36FDB4303F05B
:1002B0000103BB676369DB4303F001037B61D4F88F
:1002C0008C30DB4303F00103C7F88C30A36ADB43B7
:1002D00003F00103BB6203F0D1FD1F211A2000F0DF
:1002E00023FC2A4629461A2000F03CFC29461A2005
:1002F00000F0BCFC33688E4A03F470431360636BF8
:100300004FF4167083F480739BB27B6301F0A2FC00
:100310000422884B1A603368DD05FCD54FF08072EB
:10032000804B71684FF416701A621FFA81FB01F05E
:1003300091FC04217F4B7D4A19601368DC05FCD5D4
:100340004FF480715268774B92B201924FF416705D
:10035000196201F07FFC0421764B744A196013681E
:10036000D805FCD5002453686E4D9EB202964FF41A
:1003700016702C6201F06EFC019A93450AD0B345C9
:1003800008D0B24206D06B6B674A9BB24FF0010AAD
:10039000536300E0A24600264FF00108642435466E
:1003A000B146604F04A800F0B1F9DDE90432134012
:1003B000190706D5002E00F0B380012E0CBF0226CF
:1003C00000269DF81E30002B58D0042B08BF4FF09C
:1003D000FF38BAF1000F56D19DF81830802B45D860
:1003E000C3F180035B000B2B98BF00233B629DF899
:1003F0001C300B2B26D9013343EA0343C7F8843062
:10040000002E40F087804FF0807349460020C7F8E7
:100410009830013512F068F9AC420FD80025464BF0
:1004200089F001091B78013BDBB2022B9CBF434AD8
:1004300052F82340424BA3FB0434A408052001F0EA
:1004400009FCAFE79DF81D3001330B2BD8BF00230B
:10045000B8F1FF3F08BF1B04C7F88430002E57D007
:10046000022E384B18BF4FF04013CEE77F3B5A00A7
:100470000B2A94BF53465B043B62B8E74FF0010878
:10048000BAF1000FA8D09DF918309DF81820002B64
:100490007CDB0BFB02F30199C2F1800201FB02320B
:1004A000D309042223490A60A1F500510A68D20544
:1004B000FCD5019A9B4534BFA3EB0B00ABEB0300CB
:1004C00093428CBFA3EB020EA2EB030E029A496883
:1004D00093428CBF9A1AD21AB0F5147F89B2039254
:1004E00050D3BEF12F0F5BD9039A2F2A029A8EBFE9
:1004F0004FF0A00C13464FF0300C8B4234BFCA1A99
:100500005A1A624522D27B6B074A9BB253636EE74D
:1005100033467AE7022E0C4B08BF4FF0012374E7F5
:1005200001264EE700800A4000900A4000000A4081
:1005300000100A4000200A40E8090020687F0110EE
:10054000CDCCCCCC0001400040000001B0F5147FC0
:100550002AD3BEF12F0F2BD903982F2828D902EBCD
:10056000C202C2F35322483292B28B428CBF4FF484
:1005700080734FF080733B627B6B53400D4A9BB29C
:10058000536334E75B464FF0000CB6E70299A2F1E3
:100590007F0301FB03F3C2F1FF020BFB02327FE793
:1005A0004FF0300C019BA8E7002390223B62E3E769
:1005B0009022DAE700900A40F0B5404FA7B0064617
:1005C00038880D4604F0B4F901463888039104F0E8
:1005D000CBF9013DADB201360246012303990195E5
:1005E000009607A8364C06F0BBFD07A806F0DAFD1A
:1005F00018B306AB0DF1160207A805A906F020FFF7
:10060000BDF81430012B1AD0092BEED1BDF81630ED
:10061000002BEAD0069A013B72B3012202FA03F3DF
:1006200022681A4202D1616819436160134307A826
:10063000236006F0B7FD0028DBD127B0F0BDBDF880
:100640001630303B092BD0D801A252F823F000BF5E
:10065000930600109F06001099060010B7060010C0
:10066000B1060010AB060010EB050010EB05001002
:10067000EB050010A5060010012202FA03F3226820
:100680001A4202D061681943616022EA03032360C1
:10069000ABE7069B2372A8E7069BA372A5E7069B20
:1006A0006372A2E7069BA3739FE7069BE3729CE736
:1006B000069B637399E7069B237396E7424F0020DE
:1006C000004E002038B50DF097FC012100220948AA
:1006D000094D0170094C0A4829700A4B0A490280E9
:1006E0000A700FCB84E80F00BDE8384005200DF0FC
:1006F00065BC00BF634F0020E8090020004E0020C9
:10070000424F00207C7F0110664F002030B5084C1E
:100710008446A6460025BEE80F00CCF80000CCF8C1
:100720000410CCF80820CCF80C30656030BD00BF58
:10073000004E002038B51C4B1A6842B11B481468A3
:1007400006231B4A1B490068A047062813D0012135
:1007500000221948194D0170194C1A4829701A4B7A
:100760001A4902800A700FCB84E80F000520BDE80B
:1007700038400DF023BC0224104B44F6206114488D
:100780001C7007F035F91349114807F00DF91048AE
:1007900007F038F9084B10491C700A4A09780448D8
:1007A000BDE8384004F042B9781E0020701E0020D9
:1007B000444E002044474F48634F0020E809002082
:1007C000004E0020424F00207C7F0110664F002029
:1007D000E01E0020C5060010E909002038B5114CC4
:1007E0002378032B02D0042B18D038BD02250E4BE2
:1007F00044F620610D481D7007F0FAF80C490B48CB
:1008000007F0D2F8094807F0FDF80A4B257019786F
:10081000094A0A48BDE8384004F008B9BDE8384044
:10082000FFF788BF634F0020E8090020E01E00208A
:10083000C5060010E9090020424F0020444E002068
:10084000042800D0704770B511781446DC2982B0B6
:100850006BD009D816295ED060292FD19378022B4E
:1008600000F0908002B070BDDD293ED0EF29F9D1B3
:10087000794D2B78022BF5D19378013B0C2BF1D8D5
:1008800001A252F823F000BF270A0010FB09001054
:100890008F09001065080010650800106508001039
:1008A0006508001065080010650800106508001054
:1008B00065080010CD090010990900100529D1D153
:1008C000654D03462A786421022A08BF0323634842
:1008D0002B7007F08DF86148614907F065F85F48B3
:1008E00002B0BDE8704007F08DB85B4B1B78012B60
:1008F000B8D100215B485C4C03705C4A5C485D4B9E
:10090000018019700FCA84E80F00052002B0BDE80D
:1009100070400DF053BB6946901C062207F00CF99D
:10092000684655490DF0AAFB9CE74B4D2B78012BEF
:1009300098D10921104607F0BBF800F4F853B3F53D
:10094000A06F8FD103078DD502260622A0194B492F
:1009500007F0F2F8434B44F6206140481E7007F060
:1009600047F847493D4807F01FF83C4807F04AF868
:10097000444B3F4A197841482E7002B0BDE87040A0
:1009800004F054B8344B1B78002B7FF46BAF02B0EB
:10099000BDE87040FFF7CEBE6379002B7FF462AFF5
:1009A00001240321384A33482E4B12680470197011
:1009B000002A3FF457AF54680623A44633482F4A11
:1009C0003349006802B0BDE870406047294B1B788E
:1009D000002B3FF447AF0521204607F063F801469E
:1009E00000283FF43FAFE379A12B7FF43BAFE01D3C
:1009F00002B0BDE87040FFF7DFBD184807F008F807
:100A00006379F3B1662BC2D11A4B1B78002BBED190
:100A1000EFF3108472B64FF400511E4817F060FADD
:100A200084F31088B3E70D4806F0F2FF0321204657
:100A300007F038F8134B197802B0BDE8704003F0A6
:100A4000CFBF02220B4920460B7003212A7007F00A
:100A500029F8074B188005E7634F0020E01E0020AF
:100A6000DD070010E8090020004E00207C7F011007
:100A7000424F0020664F0020747F0110444E00203A
:100A8000C5060010E9090020781E0020701E002015
:100A900044474F4800D03F0038B511F033FE60BBEB
:100AA0000446174D0EF020FB4FF40071154803F07B
:100AB00071FF284603F08EFF05200CF077FE2046DC
:100AC0000DF002FB1048456008F08CFD01200DF090
:100AD0004FF80E4B0E490F481C700F4D06F0CCFF1F
:100AE0000E490F4A0F4B0C8014700FCB85E80F0096
:100AF00001200CF069FE204638BD4FF0FF34FAE7C4
:100B00004108001000480020A0360020634F00205C
:100B1000701E0020781E0020004E0020424F002052
:100B2000664F00207C7F011010B44FF480740C4B92
:100B300053F8202003EB8003C00082F0400200F154
:100B4000804003F5805C02F0C00200F5203003F520
:100B50004053CCF8002041601C605DF8044B7047A6
:100B600004800340002915BF0C2104214FF0080C1C
:100B70004FF0000C002A08BF6146064B53F82020B6
:100B800003EB80034A4003F5805302F00C021A6025
:100B9000704700BF04800340022221B1044B904003
:100BA00003441A607047034B904003441A60704737
:100BB00004A0034004B0034070B44FF050460F4B04
:100BC00036680F4D00F0070C002E08BF2B46C008FA
:100BD0000C4C4FEA8C0C01FA0CF103EB80038C30C7
:100BE00044F8201022B170BC03F50053196070471F
:100BF00003F54053196070BC704700BF90820240FB
:100C0000488202400080024070B54FF050460446D2
:100C10000C4D336882B055F82300204208D10443BC
:100C2000152045F8234002B0BDE8704000F0BCB983
:100C3000CDE9001201F0FAF9DDE90012336855F848
:100C40002300ECE73C4E002010B50446152000F0D0
:100C50009FFA4FF05043044A196852F8213023EAB2
:100C6000040342F8213010BD3C4E0020402221B147
:100C7000044B800003441A607047034B8000034418
:100C80001A60704704A0034004B0034030B400234E
:100C900043EC440043EC400005254FF480740B4BBB
:100CA000C20053F8201003EB800081F0400102F1F4
:100CB000804303F5203301F0C00200F5805100F5B8
:100CC00040500A605D60046030BC7047048003409F
:100CD0000FB400B583B0049C074803F043F83CB15F
:100CE00005A92046019102F0BBFE044803F03AF842
:100CF000012002F0CDFE00BF8C7F0110688501103D
:100D0000EFF3108072B6064BD3E8CF1F0122002903
:100D1000FAD1C3E8412F0029F6D1BFF35F8F7047A6
:100D20001F1500200023034AC2E88F3F80F310887C
:100D3000704700BF1F15002070B5EFF3108572B625
:100D4000134CD4E8CFCF0126BCF1000FF9D1C4E891
:100D50004C6FBCF1000FF4D1BFF35F8F4FF0010C6B
:100D60004FEAD10E01F007030CFA03F310F80EC09E
:100D70001CEA030608D14CEA030300F80E30C4E86D
:100D80008F6F85F3108870BD1046FFF7A1FF00BF7D
:100D90001F150020F8B5EFF3108572B6234CD4E888
:100DA000CF7F0126002FFAD1C4E8476F002FF6D17C
:100DB000BFF35F8F9A4227D80126D70810F807E0C3
:100DC00002F0070C06FA0CFC1EEA0C0F00EBD2072F
:100DD0000DD125E04FEAD20E10F80EE002F0070C1C
:100DE00006FA0CFC1EEA0C0F00EBD20718D00132F9
:100DF0009342EFD24FF0FF300023C4E88F3F85F3DA
:100E00001088984207DBF8BD0023C4E88F3F85F3C4
:100E100010884FF0FF300029F5D00698FFF758FFF3
:100E20004EEA0C0C104687F800C0E5E71F150020BD
:100E300000B5EFF3108E72B6104BD3E8CFCF01227E
:100E4000BCF1000FF9D1C3E84C2FBCF1000FF4D175
:100E5000BFF35F8F01224FEAD10C01F007018A40F6
:100E600010F80C1021EA020100F80C100022C3E86F
:100E70008F2F8EF310885DF804FB00BF1F15002034
:100E8000044A1078431CDBB2172B88BF1023137061
:100E9000704700BFEA0900204FF0E022936843F05A
:100EA00000539360704700BF0021044B03F1200200
:100EB000C3E88F1F01339342FAD170471415002005
:100EC0004FF0E0234FF08032C3F80024C3F804242D
:100ED000C3F80824C3F80C24C3F81024C3F814245E
:100EE000C3F81824C3F81C24C3F82024C3F824240E
:100EF000C3F82824C3F82C24C3F8302462B6704702
:100F0000012300F01F029340400941B1800000F12D
:100F1000604000F56140C0F8803103607047024ACC
:100F2000203042F82030704700E100E00122430900
:100F3000044900F01F0002FA00F0403341F823009A
:100F4000704700BF00E100E0F8B50D46EFF31087F1
:100F500072B6124ED6E8CF2F0123002AFAD1C6E886
:100F6000423F002AF6D1BFF35F8F0D4B00F1100412
:100F70009B680C4A53F82430934203D0994201D025
:100F800001F054F8064B9B6843F82450BFF35F8F81
:100F90000023C6E88F3F87F31088F8BD1D15002099
:100FA00000ED00E0110100102DE9F04F80468B4666
:100FB000174683B0EFF3108372B6DFF8D0A1009329
:100FC000DAE8CF1F01230029FAD1CAE8413F0029FE
:100FD000F6D1BFF35F8F664E96F90050002DC0F238
:100FE000A080644C05EB450304EB8300817908F194
:100FF0001008317060499B008968994651F828E0D3
:101000000646AEEB04012F294FEA450231D95B4B6E
:101010009E4540F0A2805A4B09F10209A144043BCD
:10102000A3EB0903C3F34A036FEAC3434FF421411F
:101030006FEAD343154424F8251004EB85056B8033
:101040004BF60153AB80FF2346F0010EEF71C5F85C
:1010500008B0AB71484B9B6843F828E0BFF35F8F43
:101060000023CAE88F3F009B83F3108803B0BDE8DC
:10107000F08F2EF0010191F807C0BC452BD84FF43A
:101080002146E6523E4B09F102062644043B09F193
:1010900004099B1BA1440E1FC771A6EB0906394F1B
:1010A000C6F34A063E438680C3F34A03364E3B43AB
:1010B00043804AF6AA250B461B1B5B415D432D0D61
:1010C000C0F808B0857140F0010E0E60C2E7C0792B
:1010D000B8422BD9614691F9063003EB430004EB8B
:1010E0008000002B8446F2DA4BF6015001930B1D71
:1010F000043EF61AC6F34A066FEAC6466FEAD646BB
:1011000002EB050CDFF88090019B8D7104EB8C05E0
:101110008E8044F82C90A880AB71EF71C5F808B0B0
:1011200098E700F083FF96F900505AE7888801930A
:10113000400501F1040315D44FEA605C6FF007002D
:101140000CF1020CA0EB090003EB4C0C001B6044FB
:10115000C0F34A0040F46040CAE7019200F066FF25
:10116000019A58E700F5FF1000F5FF501F30E3E744
:10117000674F0020EC09002000ED00E01101001095
:101180001C0A002000E0FFFF014880471D150020D9
:101190002DE9F04F83B0EFF3108972B6704ED6E8A8
:1011A000CF2F0123002AFAD1C6E8423F002AF6D108
:1011B000BFF35F8F6B4B00F110079B6853F827500C
:1011C000694B9D4242D08D424ED0684C2B1B2F2B39
:1011D0003CD84FF0010A4FEA50184FEA880808F14E
:1011E000604808F56148D8F8003000F01F000AFA9E
:1011F00000FA0AEA0303C8F880A00093BFF35F8FE8
:10120000EFF30583DBB29B4683BB25F0010EDEF8CE
:1012100008C0614500F099800B4661469C4603E09A
:1012200081688C452CD096469EF9063003EB43002E
:1012300004EB8000002B0246F2DA63468B4259D061
:10124000009BD3B1C8F880A1C8F800A0454B9B68AB
:1012500043F82750BFF35F8F0023C6E88F3F89F321
:10126000108803B0BDE8F08F1D46EFE79F42CCD059
:10127000019100F0DBFE0199C7E7C8F880A0E5E71F
:1012800090F90610002936DB01EB410C04EB8C0CC5
:10129000DCF80830480093609CF80730D3719CF963
:1012A0000630002B93713EDBBCF804305B0504D59F
:1012B00003F5FF1303F5FF531F335B1503F1020C16
:1012C0004FF0040E0C2313FB01E303EB4C036FF010
:1012D000070C2344ACEB020C6344C3F34A0343F40E
:1012E00060439380224B08441A7804EB8004197001
:1012F000A271A5E77246BBF1000F17D1FF238EF84C
:1013000006304BF60153AEF8043019484AF6AA23CA
:1013100090F800C01146091B49414B431B0D82F850
:1013200006C003708CE74BF60153DAE7114B124805
:101330009B1A083BC3F30A316FEA01516FEA11515E
:1013400040EA5303D38091807AE79EF906107246F3
:10135000002999DABBF1000FE8D1034DD5E700BFB2
:101360001D15002000ED00E011010010EC09002027
:10137000674F0020260A002000F8FFFF4FF0FF0C07
:1013800020F0030303F1604303F5644300F003001E
:101390001A68C0000CFA00FC22EA0C0281400A43E1
:1013A0001A607047F0B5EFF30585EDB2EFF3108CDE
:1013B00072B62649D1E8CF2F0123002AFAD1C1E81D
:1013C000423F002AF6D1BFF35F8F214E40F0010E5D
:1013D000B4684AF6AA2354F825701E4A0446A41A93
:1013E000644163431B0D77455BB21BD092F9064005
:1013F0009C421CD092F912409C4223D092F91E408C
:101400009C4221D092F92A409C4208BF03240FD06D
:10141000114A0024157813708571C1E88F4F8CF341
:101420001088F0BDB2680D4C42F82540F0E700246A
:1014300004EB440402EB8402FF2494714BF6015444
:101440009480E5E70124F3E70224F1E71D1500206D
:1014500000ED00E0EC090020674F002011010010B2
:1014600001460248C1F13301FFF7E2BC724F002090
:1014700010B5074C82B001460523002200940548B0
:10148000FFF788FC0028A8BFC0F1330002B010BDF0
:101490009C7F0110724F002070B5044616460D4621
:1014A000FFF7EEFC0146204600F006F8E680A58036
:1014B000BFF35F8F70BD00BF014B194401607047DF
:1014C00014150020F8B5124D124EB5421FD22C460D
:1014D0002368FF277BB1FFF7D3FC01462846FFF7BF
:1014E000EBFFA780BFF35F8F0834B4420FD22368AD
:1014F0002546002BEFD1FFF7C3FC01462846FFF736
:10150000DBFF2771BFF35F8F0834B442EFD3F8BD20
:10151000D8120020E012002010B50446FFF7B0FCFE
:1015200001462046FFF7C8FFFF23A380BFF35F8F6C
:1015300010BD00BF0D4B1A68EFF3108172B6D2E8F0
:10154000CFCF0120BCF1000FF9D1C2E84C0FBCF1A4
:10155000000FF4D1BFF35F8F00221B68C3E88F2F09
:1015600081F3108840BF002000217047244F0020E5
:101570002DE9F04F2DED028B85B0EFF30583DBB243
:10158000103B9A0818BF01224FF0010103F003003D
:10159000AD4B00EB82020CBFAC4FAD4F53F8226055
:1015A00001FA00F207F541539FEDA58BB04601907B
:1015B00000925A6035E0B8F804301B0440F1928084
:1015C00098F80630002B40F0DF80B8F90820002A98
:1015D000C0F22581D8F8143002EB420203EBC202BC
:1015E000D2E90245B5F1FF3F08BFB4F1FF3F0DD08E
:1015F000019B07EB8301BB6A0A69D21AE31A934283
:1016000003D33B6A009A134200D10C61384600F0C4
:10161000B3FB201A65EB0105012875F1000380F288
:10162000FE80B8F90840009B002CFB63C3DBD8F8B0
:1016300014A004EB440B38460AEBCB05D5E902961F
:1016400000F09AFB484561EB06010029B3DB002E50
:10165000C0F2C3802B697F4A934200F0FD806A8804
:10166000B8F9080092B242EA004069699847024618
:101670000B4652EA030100F0B080002B80F2D580C7
:10168000B9EB020066EB0303C5E902033AF93B50EC
:10169000002D90DBD8F814C005EB45010CEBC1011F
:1016A0008A68821ACA6863EB0202002A83DBA8F800
:1016B000085007E09568451BD56863EB0505002DCC
:1016C00008DB1146B1F9006006EB4602002E0CEB78
:1016D000C202EFDA2AF83B600C80B8F804301B0431
:1016E0003FF56EAFD8F81030EFF3108272B6D3E842
:1016F000CF0F01210028FAD1C3E8401F0028F6D1FE
:10170000BFF35F8F4FF6FF70B8F804900023D8F84E
:1017100010100FFA89F9A8F80400C1E88F3F82F38E
:1017200010889945FFF64CAFBA46D8F8145008F126
:10173000080B09EB490E05EBCE03D3E90267B8F9B4
:101740000830DC46002B05DA0FE035F934308446EA
:10175000002B0ADB03EB430405EBC400D0E90212C3
:10176000711A67EB0202002AEFDAACF8009035F943
:101770003E9025F83E30B9F1000FDADA98F80630DD
:101780005746002B3FF421AF002388F80630B8F904
:10179000083008F1080C5E1C41D01A46D8F81440F5
:1017A00003E08446591C3FF412AF03EB430104EB02
:1017B000C10045881E462D0434F93130F1D59642DA
:1017C00080ED028BEED0ACF80030B8F8082024F899
:1017D00031203246A8F80860E4E73AF83B30A8F830
:1017E0000830D8F81030EFF3108272B6D3E8CF0F7C
:1017F00001210028FAD1C3E8401F0028F6D1BFF329
:101800005F8FB8F80230D8F810102AF83B30002368
:10181000A8F80240C1E88F3F82F31088CBE640BFB2
:1018200005B0BDEC028BBDE8F08F3846CDE9022350
:1018300000F0A2FA029A039B801843EB010323E70E
:10184000FFFFFFFFFFFFFFFF1C4E002000000B40CB
:1018500000800B40711500106B6918461A690293DD
:1018600090470028B9D0029BD3E9002301E700BFCD
:101870002DE9F84F364C25692DB1BDE8F84F0A2106
:101880003448FFF719BEDFF8E48003260321404601
:1018900000F060FAC4F80C80FFF7F2FA4FF0504CF9
:1018A0002D4B26701844DCF800300F2163706369FB
:1018B00061801D834FF00405A3F878504FF00505B3
:1018C000A3F890504FF00605A3F8A8504FF0070575
:1018D0000E21206108274FF6FF724FF00A0EA3F881
:1018E000C0504FF001094FF00C0C4FF0020B4FF0BD
:1018F000090A0D204FF00B05A3F868111749A280C3
:10190000A3F808E1A160A3F848B0A3F8F0A0A3F8F9
:101910002051A3F838C1A3F85001A3F83090A3F8E0
:101920006060A3F8D8701A800D4B3046C8F820705C
:101930000C49DC60FFF708FB49463046FFF7E0FA48
:10194000094B0A211F600348BDE8F84FFFF7B4BDFB
:10195000340A0020244F002014150020FFFF10003F
:101960001C4E00207115001040200B4000000B4061
:1019700000487047340A00202DE9F0419DF82050BE
:10198000044617461E4635B900F0FEF9874266EB5D
:101990000101002957DB2169EFF3108072B6D1E80D
:1019A000CF2F0123002AFAD1C1E8423F002AF6D105
:1019B000BFF35F8FB4F90220D4F814C002EB4201E8
:1019C000002A4FEAC10E0CEBC10102DB3CF80E30DD
:1019D00063804FF000082369C3E88F8F80F310887D
:1019E000424533DB4888069B0130C0F30E000128D6
:1019F00038BF01200B61079B48804B61C1E902762B
:101A000040EA02402369EFF3108172B6D3E8CF6F4A
:101A10000125002EFAD1C3E8465F002EF6D1BFF3B0
:101A20005F8FA3882CF80E30A2802369C3E88F8FC4
:101A300081F310880122E368217803F501538A407D
:101A40005A60BDE8F0812846BDE8F0814FF0FF30D4
:101A5000F7E700BF0146F0B50069EFF3108772B6F3
:101A6000D0E8CF5F0124002DFAD1C0E8454F002D0A
:101A7000F6D1BFF35F8FB1F902E04C690EEB4E0C6B
:101A80004FEACC06BEF1000FA8BFA05B4FF00005E7
:101A9000A8BF488004EBCC0C0869C0E88F5F87F3CF
:101AA0001088AE4535DBBCF80200CCE902230130DA
:101AB000C0F30E00012838BF0120059BACF80200DE
:101AC000CCF81030069B40EA0E40CCF814300B697D
:101AD000EFF3108272B6D3E8CFCF0127BCF1000F2D
:101AE000F9D1C3E84C7FBCF1000FF4D1BFF35F8F95
:101AF0008B88A353A1F804E00B69C3E88F5F82F3DE
:101B000010880122CB68097803F501538A405A6096
:101B1000F0BD4FF0FF30F0BD4289B2EB214F38DD10
:101B200042690B1403EB430310B502EBC3030469D2
:101B3000EFF3108C72B6D4E8CFEF0122BEF1000FA4
:101B4000F9D1C4E84E2FBEF1000FF4D1BFF35F8F7F
:101B50005A8889B292B28A4207D000230269C2E849
:101B60008F3F8CF31088184610BD42F400425A8013
:101B70000123002201698371C1E88F2F8CF3108843
:101B8000C268017802F5015203FA01F1184651606A
:101B900010BD0020704700BF2DE9F041861F41F1C4
:101BA000FF35B04271EB050338BF002682B038BF65
:101BB000354604460F4600F0E7F8301A65EB0101A0
:101BC000012871F1000306DA2046394602B0BDE86B
:101BD000F04100F0E3B800F0D7F8864265EB010170
:101BE00000290ADB0021174B3246009316482B468A
:101BF0000191FFF72FFF0028E6DB4FF0000C1348A0
:101C0000134A436A9D4204D8816AB142DCD29D42A4
:101C1000DAD11368EFF3108172B6D3E8CF8F5FF09B
:101C2000010EB8F1000FF8D1C3E848EFB8F1000F8A
:101C3000F3D1BFF35F8F1368C3E88FCF81F31088B0
:101C400020BFDEE735150010340A002000000B40ED
:101C5000244F002010B5044600F096F84FF47A7334
:101C6000E4FB0301BDE810400029BCBF4FF0FF308A
:101C70006FF00041FFF790BF2DE9F04307460E4695
:101C800083B0EFF30584E4B274B12F4B586A8842F5
:101C900003D2002003B0BDE8F0839B6ABB4248D367
:101CA000012003B0BDE8F083284DD5F80C9095F8DD
:101CB0000080484600F060F808F1040859F8283020
:101CC0001B1A381A66EB0101984271F100030DDB13
:101CD00020BF1D4B586A8642DBD89B6ABB42DFD2CD
:101CE000301A18BF012003B0BDE8F08300F04CF8B3
:101CF000874266EB0101002913DB154B2846CDE92D
:101D000000343A463346FFF7A5FE011E09DD0E4BAF
:101D10005A6A964215D89B6ABB4210D30B48FFF70C
:101D2000FBFE094B586A8642B3D89B6ABB42B7D2C6
:101D3000D6E7401A18BF012003B0BDE8F0839642F1
:101D4000ECD120BFEAE700BF00000B40340A0020BE
:101D50003515001010B4054B054C064AA04214BFBF
:101D60001846581C5DF8044BFEF7E6BFB01E002075
:101D700000800B40C07F0110416A0B46826A416AB5
:101D80008B42FAD110467047034B596A0A46986A4B
:101D9000596A9142FAD1704700000B40074A536AD2
:101DA0009942FCD8994207D1044B02E05A6A914209
:101DB00002D19A6A8242F9D3704700BF00000B40FB
:101DC00000EB400C4FEA8C0C0CF1804C0CF5803C85
:101DD00070B5DCF80440A0F1040EB4F5803F38BFC4
:101DE0004FF480345FFA8EFE38BFCCF80440BEF169
:101DF000010F29D94FF40066244D0CF5405426609C
:101E000055F82060BEB9DCF800400CF5805684EA35
:101E1000421202F0E002BEF1010F326028D94FF405
:101E2000006145F820304FF480330CF5005211600A
:101E3000CCF8043070BD6C69B4FBF6F4013404EBEB
:101E40004404033CFDD2DEE70129D3D103250CF580
:101E500040542560DCF80840E407FBD5DCF800407E
:101E60000CF5805684EA421202F0E002074D32601F
:101E70000122DCF800404C4004F00304346002FA14
:101E800001F1DCF808200A42FBD0C8E7B81E0020A8
:101E9000014B53F820007047B81E002070B4039C1B
:101EA0000568240344EA03431B4C002DB4FBF1F402
:101EB000B2FBF4F21FDB194D194CA8420CBF4FF4D2
:101EC00000454FF48045174E256004F58054256089
:101ED000B46835EA0404FBD1212500F540540434EC
:101EE0000160826025600268002AFCDA0822C36073
:101EF000226070BC7047046804F03F048C42DAD161
:101F00008468C4F30B049442D5D1C46804F4EE246D
:101F10009C42D0D1EDE700BF001BB7000080054018
:101F20000020024000000240012300EB400080003E
:101F300000F1804000F5841041600360704700BFED
:101F40000023DB8A002242E800F2520201D4102171
:101F500018470421184700BF034AD2F82838002B3D
:101F6000FBD0BFF35F8F704700000E400021044B91
:101F7000044ABFF35F8F43F8041B9342F9D17047C3
:101F80000C080E402C080E40012070474FF05043C3
:101F90001A68EFF3108172B6024B002043F822104A
:101FA000704700BF784A00204FF05042034B126840
:101FB00053F8223083F3108800207047784A0020BD
:101FC000004870474C0A00202DE9F04106460F46B4
:101FD0001546FFF7F5FF58B1044643682846984771
:101FE00040B93846B0472846A368BDE8F0411847D5
:101FF0006FF00300BDE8F08110B44FF48D704FF422
:102000002A64064A064B07491460D0601960536879
:10201000002BFCDA5DF8044B704700BF00800440E1
:1020200000A0044000B0FA00704700BF08B50148A6
:10203000FEF74EFEE47F011038B5054C054DAC426D
:1020400004D254F8043B9847AC42FAD338BD00BFE1
:10205000207F0110607F011010B40748074C084B27
:10206000084A094904601A608B6832EA0303FBD10D
:102070005DF8044B704700BF002002407F3BEFEF4C
:1020800000300240F6FFF30300000240044BDB6C1B
:10209000B3F5004F03D14FF48022024BDA6470474E
:1020A00000001150002011504FF0E022044BD2F8F4
:1020B000881D0B43C2F8883D10EE3004704700BF06
:1020C000030330006FF06041044B054A19609368C8
:1020D000DB4333F06043FAD1704700BF0030024069
:1020E0000000024010B545F25320FFF729FFBDE87C
:1020F000104003460420184710B545F25320FFF75F
:102100001FFFBDE81040034601201847FEF7CCBE74
:1021100070B52E492E4C2F4E641AA510442D2A4618
:1021200028BF44223046920015F082FBB4F5867F2A
:1021300047D805F1010CBCF1440FC5F1430134440B
:10214000C5F1440088BF012005296346224AC4F333
:10215000800418D9BCF1440F15D8ACB346F825203B
:10216000001B2C4406EB8403410803EBC101C3E9C7
:10217000002208339942FAD120F0010398420CEB77
:1021800003051ED06B1C442B46F8252019D0422D88
:1021900046F8232005F1020313D0412D46F82320F1
:1021A00005F103030DD0402D46F8232005F104036B
:1021B00007D03F2D46F8232005F1050301D046F84E
:1021C0002320064B9E6070BDAC46C9E7000000109E
:1021D00010010010000000201101001000ED00E0CF
:1021E0000023F0B52B4C83B0C4F88430FFF704FF14
:1021F0000122294BDA63636C012BFCD10321264AAF
:10220000244B11639D6B012DFCD1052302271E4633
:1022100000242946214A22480097FFF73FFE29461D
:102220003346204A20480096FFF738FE39462246BA
:1022300004201E4BFFF7C4FD2946224630461C4BA6
:10224000FFF7BEFD2246082021461A4BFFF7B8FDD6
:10225000224609202146174BFFF7B2FD22460620F1
:102260002146134BFFF7ACFD114B224607202146B8
:10227000FFF7A6FD0420FFF70BFE0F4DA5FB003571
:10228000AD0CE0B229460134FFF74EFE062CF8D122
:1022900003B0F0BD0000014000300140002F68593C
:1022A00000000540008C864700800540001BB700F9
:1022B00080D1F008006CDC0283DE1B4386B003B4DF
:1022C00051FC0804CDE9020151FC0904CDE90401E7
:1022D00051EC0A04CDE9060103BCF047BDE800500B
:1022E0004EEC00C4BDE800504EEC01C4BDE8005007
:1022F0004EEC02C400BD000000B5FFF7DFFF02E0B6
:1023000010FE30F4F8D441EC100443EC112400EE3C
:10231000010410EE010480EE200451EC100470471B
:1023200000B5FFF7CBFF02E010FE30F4F8D441EC2B
:10233000100443EC112400EE010410EE210480EEA1
:10234000200451EC3004704700B5FFF7B7FF02E0FE
:1023500010FE30F4F8D410B541EC100443EC112415
:1023600051EC040453EC0524A0FB024C5FF0000E7A
:10237000E0FB03CEE1FB02CE4CEC20440024E1FB69
:1023800003E444EC30E480EE200451EC5004BDE85A
:102390001040704700B5FFF791FF02E010FE30F4E7
:1023A000F8D441EC100443EC112451EC2104A0FBBF
:1023B00001126FEA820252FB100052FB12F252FB32
:1023C0001000A0EBD07C53EC04245CFB13F153EC25
:1023D0001524A1FB022001FB030053EC4424A2EBD3
:1023E000000050FB1CF24FEA111312EB017043EB9B
:1023F000E27140EA515020EA915020F0070053EC7E
:102400007524A0FB023C53EC752400FB03CC01FBBC
:1024100002CC53EC0424ACEB824C40EA5C70A0F19B
:10242000010041EC400480EE200451EC7004704740
:1024300000B5FFF743FF02E010FE30F4F8D440ECA3
:10244000700400EE010410EE210480EE200451EC33
:102450003004704700B5FFF731FF02E010FE30F4A2
:10246000F8D440EC600400EE010410EE210480EE8C
:10247000200451EC3004704700B5FFF71FFF02E065
:1024800010FE30F4F8D441EC800400EE010410EEAC
:10249000010480EE400410EE1304704700B5FFF70E
:1024A0000DFF02E010FE30F4F8D441EC800400EEA1
:1024B000010410EE010480EE400410EE3304704776
:1024C00000B5FFF7FBFE02E010FE30F4F8D441EC5B
:1024D000100443EC112400EE010410EE3004C0F3AC
:1024E0000070704700B5FFF7E9FE02E010FE30F41F
:1024F000F8D443EC102441EC110400EE010410EE7A
:1025000030F48CBF01200020704700BF00B5FFF7FA
:10251000D5FE02E010FE30F4F8D443EC102441EC78
:10252000110400EE010410EE30F42CBF0120002055
:10253000704700BF00B5FFF7C1FE02E010FE30F4A7
:10254000F8D441EC100443EC112400EE010410EE29
:1025500030F42CBF01200020704700BF00B5FFF70A
:10256000ADFE02E010FE30F4F8D441EC100443EC70
:10257000112400EE010410EE30F48CBF0120002085
:10258000704700BF10B5044614F058FE28B103464A
:10259000034A2344934200D810BD0248FEF798FB3B
:1025A00000000820F07F011014F050BE704700BFFB
:1025B0002DE9F84F9A460D9B17469A0706468B461B
:1025C000DDF8288011D1DDE90B3293420DD213469C
:1025D0003C460B9A9D1A3D442246534659462020BC
:1025E0000134B047AC42F7D100E03D460B9B73B1DC
:1025F00008EB030404EB0509A9EB040214F8010D30
:1026000053465946B0474445F6D10B9B1D440D9B9C
:102610009B070ED50C9BEF1BBB420AD91C462A46D2
:102620005346594620200137B047BC4205F1010509
:10263000F5D82846BDE8F88F2DE9F04F0F9EDDF85C
:1026400024E016F0020F0A9C9DF82C900E9DDDE907
:102650000C872CD1002D74D1BC4206F0010B80F008
:10266000CB801F2C88BF202400F2C68004F1FF3CE1
:102670004FF0300AF44401E0202C04D00134A7428A
:102680000CF801AFF8D8BBF1000F10D0A5420ED95D
:10269000202C2DD004F1FF3C4FF0300AF44401E02F
:1026A000202C25D00134AC420CF801AFF8D116F043
:1026B000100F38D016F4806F26D10CBBB8F1100F74
:1026C0007FD0B8F1020F00F0928030248EF80040E5
:1026D0000124B9F1000F2BD02D270EF8047001341E
:1026E000CDE90B56CDE909E4BDE8F04FFFF760BF37
:1026F00016F0100F4FF02004F2D016F4806F03D1C3
:10270000A74249D0A54247D0B8F1100F4ED0B8F13A
:10271000020F39D0202CE3D04FF0300C0EEB040721
:1027200087F800C00134202CDAD0B9F1000FD3D1E2
:1027300077071DD43707D3D520270EF8047001344E
:10274000CEE716F0010B0DD0B9F1000F22D116F033
:102750000C0F1FD1BC4299D21F2C87D9202DC7D86E
:102760002024A4E7BC42A2D21F2C7FF67FAFF7E75C
:102770002B270EF804700134CDE90B56CDE909E49E
:10278000BDE8F04FFFF714BF202CA9D00EEB0407D3
:10279000013440E0013DDDE7671E8FD0B8F1100F36
:1027A0002FD0B8F1020F35D03C46B5E7B7060FD4AD
:1027B000202C95D00EEB040C013478278CF8007097
:1027C000A8E7B4060ED478248EF800400124A3E7CD
:1027D000202C85D04FF0580C0EEB040787F800C072
:1027E000013497E758248EF80040012494E76224CE
:1027F0008EF8004001248FE7BBF1000F08BF0025D1
:1028000055E716F0200FA4F10204E3D10EEB040CFF
:102810003C46D2E777444FF0620C87F800C079E776
:1028200000B9704701F060BA10B1D1E90031184722
:10283000704700BF000000002DE9F04F2DED048B24
:102840009BB02A9CDDE9288909942B9C83461D4670
:102850000D940C920C4642464B4640464946DDF8E4
:10286000B0A0FFF731FE002840F0D6804046494630
:102870004FF0FF32744BFFF775FE002840F0CC801C
:10288000404649464FF0FF326FF48013FFF72EFEAB
:10289000002840F0C1804046494600220023FFF74F
:1028A00025FE002840F0C181CDE90A89DDE90A232F
:1028B0001F461AF4806316461193099B08BF06232E
:1028C000099356EA070340F0C3801AF4006E00F043
:1028D000A4819FED5B7B00238DED0E7B1093099B04
:1028E000109A00269342D2BF0023A3EB020E0EF1F2
:1028F000FF3309934AF4806A10960D9BB34294BF4C
:1029000000279F1B1AF00203119302D0002E18BF5C
:102910000027109B3BB1DDE90A01DDE90E23FFF73B
:102920003DFDCDE90A014046494600220023FFF75C
:10293000DDFD30B1DDE90A01024601F10043CDE9D8
:102940000A239DED0A7B099B8DED007B02932AF4FF
:102950000063049321462B4658460C9A039700F0D7
:102960009BF98046002E51D01AF0200F424614BF2A
:10297000452065202B462146D847109A0DF1480C7A
:1029800082EAE273A3EBE2734FEAD27E002762464B
:102990001846DFF8B89008F1010806F1FF3A01E0A7
:1029A000202F0FD00646A9FB0031C90801EB810397
:1029B000A0EB43033033092E084607F1010702F864
:1029C000013BEDD80523002006930A234246CDE9BA
:1029D000033021462B465846CDE9017ECDF814A0A0
:1029E000CDF800C0FFF728FE119B804673B10C9B09
:1029F0000D9FC61AB74209D942462B4621462020D0
:102A00000136D847B74208F10108F5D840461BB057
:102A1000BDEC048BBDE8F08F0D9B21462B935846EF
:102A20002B46099C0C9ACDE92889CDF8B0A02A94B0
:102A30001BB0BDEC048BBDE8F04F00F02DB900BF1A
:102A40000000000000000000FFFFEF7FCDCCCCCCE9
:102A5000C7F30A50A0F2FF30FFF7EEFC8AA3D3E9D8
:102A60000023FFF775FC8AA3D3E90023FFF748FC96
:102A7000C7F3130341EC180B43F07F51304600229B
:102A80007B4B41F44011FFF74FFC6BA3D3E90023CC
:102A9000FFF75EFC02460B4651EC180BFFF730FCCB
:102AA000FFF7EEFC1090FFF7C7FC65A3D3E9002306
:102AB00006460F46FFF74CFC00226E4BFFF720FC4A
:102AC000FFF7DEFC0346394630460E935EA3D3E99A
:102AD0000023FFF73DFC06460E980F46FFF7ACFCBF
:102AE0005BA3D3E90023FFF733FC02460B463046D5
:102AF0003946FFF719FC02460B4606460F46FFF71C
:102B000027FC324641EC180B3B4630463946FFF76E
:102B1000F7FB002241EC190B574B51EC180BFFF758
:102B20003DFC0022554BFFF7EBFB02460B4651ECF8
:102B3000180BFFF733FC0022514BFFF7E1FB024675
:102B40000B4651EC180BFFF729FC32463B46064674
:102B50000F4600204FF08041FFF7E6FB02460B4690
:102B600030463946FFF7CCFB02460B4651EC190BB9
:102B7000FFF714FC0022434BFFF7C2FB0E9B002221
:102B800003F2FF363305FFF7E3FB06460F46DDE9A8
:102B90000A0132463B46CDE90E67FFF7A7FC60BB52
:102BA00031463A46109B6333C72B34BF04260526B3
:102BB0001AF4006F3FF4A1AE51EA02033FF48FAE66
:102BC000DDE90A0124A3D3E90023FFF7B7FC48B1EC
:102BD000DDE90A0122A3D3E90023FFF787FC0028DF
:102BE0007FF47DAE099B002B3FF487AE119A002A3B
:102BF0003FF483AE013B09937FE6109B0022013B2B
:102C0000109330461D4B3946FFF7C8FB0B46024672
:102C10000146CDE90E231A46C4E79FED137B042637
:102C20008DED0E7BCDF840E067E609F10043CDF86D
:102C300028800B933AE600BF61436F63A787D23FBA
:102C400071A379094F930A401655B5BBB16B024089
:102C5000EF39FAFE422EE63F2D431CEBE2361A3FD7
:102C60000000000080842E410000000000000000F1
:102C70000000F83F0000E03F00002C40000024402E
:102C8000000018400000F03FFB799F501344D33FF1
:102C9000B3C8608B288AC63F2DE9F04F2DED028B1B
:102CA00095B0DDE922450695249DDDE92067CDE953
:102CB0000701CDE90923304632463B4639460595A2
:102CC000FFF702FC002840F0C481304639464FF03F
:102CD000FF326FF48013FFF709FC002840F00D81EC
:102CE000304639464FF0FF32BF4BFFF73BFC002820
:102CF00040F0DD80B8A3D3E9002330463946FFF722
:102D000031FC002840F0C180B5A3D3E90023304650
:102D10003946FFF7EBFB002840F0B78030463946D4
:102D200000220023FFF7E2FB002840F0DA802B4668
:102D30000B9013F4806F08BF06243021A2460CAB21
:102D4000A4F1200206E00AF1FF3A524503F8011B04
:102D500000F03181BAF1090FA4EB0A05F3D8394626
:102D60003046FFF78DFBA14B044603EBCA0393EDFE
:102D7000008BFFF761FB02460B4630463946FFF7F2
:102D8000D3FA53EC182BFFF7E3FA89468046FFF796
:102D900089FB8346FFF762FB02460B4640464946E5
:102DA000FFF7C2FA0022924B80468946FFF7DAFB12
:102DB000002800F0F1800BF1010B5846FFF74EFBA5
:102DC00002460B4651EC180BFFF7A4FB10B14FF075
:102DD000000B0134BAF1000F40F09A802046FFF753
:102DE0002BFB02460B4630463946FFF79DFA002280
:102DF0007F4B06460F46FFF779FB40B93046394610
:102E000000227B4BFFF7AEFB002800F016816A1E04
:102E10000CAB78491A44202D4FEAE47300F09380FC
:102E200081FB0460C3EBA00303EB8300A4EB40042D
:102E300004F1300001351C4602F8010F002BEAD1E5
:102E4000059B03F00303012B00F08380202D0AD0A3
:102E50000B9B002B00F0B1802D2205F150036B4439
:102E600003F8202C0135059B0CAC0393069B0094C2
:102E7000CDE90153DDE90701DDE90923FFF798FBFF
:102E800015B0BDEC028BBDE8F08F059BCDE9206746
:102E9000DDE907012493069B22942393DDE90923AE
:102EA00015B0BDEC028BBDE8F04FFFF7C5BC05F0D7
:102EB00004042395504D002C504C18BF2C46DDE9DE
:102EC000070120940CBF03240424069B2293DDE910
:102ED0000923219415B0BDEC028BBDE8F04FFFF73C
:102EE00067BB01213B4632460B9100200021FFF7D2
:102EF0001BFA2B4606460F461BE7069C2395229499
:102F00000424DDE90923DDE907013D4D2095E0E7D3
:102F1000681E0CAB3B4F18440FE0A7FB0B32D208E6
:102F200002EB8203ABEB43033033BBF1090F00F834
:102F3000013F69D9B24693460D46202D0AF1FF366E
:102F400005F10101E9D1059B202503F00303012BC5
:102F500089D1069B002B3FF479AF0B9B1BB9059BD6
:102F600013F00C0F02D0069B013B0693069BAB426D
:102F70007FF66CAF202D0DD030226B1E0DEB0201C1
:102F80000B44069901358D4203F8012F3FF45EAFE3
:102F9000202DF7D1202566E7404649460022144BF4
:102FA000FFF7A4FA00287FF415AFBBF1000F4BD157
:102FB0000BF1010B0EE72025D1E6059B5A0741D402
:102FC0001B077FF550AF202205F1300313446B44FB
:102FD00003F8202C013546E70000000065CDCD4107
:102FE0000000000065CDCDC1FFFFEF7FF080011034
:102FF0000000E03F67666666DC800110D880011043
:10300000E8800110CDCCCCCC20299CD05EB30CAB99
:103010005A1930200D460135202D02F8010F92D0AB
:10302000EB430B4413EB0A0FF5D12E2205F15003AD
:103030006B4403F8202C0135E9E6E1077FF5E7AEA4
:103040000134E4E62B2208E71BF0010F3FF4C2AE87
:10305000AEE7069C23952294044D0324DDE9092361
:10306000DDE9070152E70D46DFE700BFE48001100C
:103070002DE9F04F9BB0249C844D0994844C0F1E85
:1030800018BF834625601878824D904608BFAB462E
:10309000002800F0C4821C464FF0000A0AE05246A5
:1030A00043463946D8470AF1010A013420780028FE
:1030B00000F0C9802528F2D10021631C1C4613F8BA
:1030C000010BA0F12002102A0AD8DFE802F03C0927
:1030D00009390909090909090936093309093000BB
:1030E000A0F13003092B40F290802A2800F0B9802B
:1030F00000252E2800F0988000230A93A0F1680391
:10310000122B27D8DFE813F01F0126001A01260032
:10311000270126002600260026002600260026007D
:10312000220026002600260026002600220041F06C
:103130000101C3E741F00201C0E741F00401BDE72E
:1031400041F01001BAE741F00801B7E7607841F4B7
:1031500080710134A0F12503532B00F28E80DFE84B
:1031600013F01C018C008C008C008C008C008C00F7
:103170008C008C008C008C008C008C008C008C00EF
:103180008C008C008C008C008C008C008C008C00DF
:103190008C008C008C008C008C008C008C008C00CF
:1031A0008C00C5010201C5018C008C008C008C00D4
:1031B0008C008C008C008C008C008C008C008C00AF
:1031C0008C008C008C008C009B008C008C008C0090
:1031D0008C008C008C008C008C008C009B008E017D
:1031E0009B00C5010201C5018C009B008C008C0076
:1031F0008C008C008C009B006E018C008C002601E2
:103200008C009B008C008C009B00002505EB850545
:1032100000EB450514F8010F303DA0F13003092BF8
:10322000F4D92E287FF468AF607841F48061A0F172
:103230003003092B04F1010240F23F812A2800F0FB
:103240004B81144658E75446D04501D808F1FF3A5F
:103250004346524639460020D84720461BB0BDE8B9
:10326000F08F099B607853F8045B0134002DBCBFDC
:1032700041F002016D4209933BE75246434639460D
:1032800001340AF1010AD84710E700BF713000107D
:10329000104E0020AD250010782800F07A815828C3
:1032A00000F0C0816F2800F00E82622800F06A836F
:1032B00021F0100369284FF00A090B9340F00682B1
:1032C000490500F16D810B9B13F4007040F00882FA
:1032D00013F4807140F0E3825E06099A00F149829E
:1032E00013F0800F52F8043B00F097831BB2099251
:1032F00083EAE372A2EBE37292B2D80F0D90002B37
:1033000040F065820B9820F0100340050B9340F1CC
:103310005E8212AB0C9352460B9BCDE905530A9B80
:10332000CDE903930D9BCDE901130C9B009343461C
:1033300039465846FFF780F982467EE0607841F4CE
:103340000071013406E76078682800F0638141F07D
:1033500080010134FEE660786C2800F0568141F46B
:1033600080710134F6E60A9B462808BF41F020012F
:103370000293099BCDE90351073323F00705B5EC10
:10338000027B52464346394658468DED007B0995EF
:10339000FFF782FC0134824688E60AF101005246BA
:1033A00043468246394625200134D8477EE6099BAC
:1033B00053F8046B0D930A9B3078002B00F0D880F3
:1033C000002800F032835A1E0132B146324401E037
:1033D000914503D019F8013F002BF9D1A9EB060361
:1033E000099311F480630B9305D0DDE90932934210
:1033F00028BF1346099311F002030C9300F0498192
:10340000002800F034810B9B002B00F0B7800A9B52
:1034100052465344994608E043463946D84716F881
:10342000010F0AF1010A10B15246D145F4D10C9BAB
:10343000002B40F01C810D9B0993013436E609985E
:1034400050F8043B002B74D041F0210512AA164617
:1034500000210C9202E0202974D0134603F00F0CD7
:103460006246BCF1090F94BF303237320F2B06F899
:10347000012B01F101014FEA1312ECD862E08B0736
:1034800040F1DA80DDF82490524659F8040B4346A7
:103490003946C0B2D847012D0AF1010688BFAA44B7
:1034A00040F2918132464346394620200136D847C2
:1034B0005645F7D1CDF82490BFE7002303EB8303F3
:1034C00000EB430312F8010F303BA0F13004092C4C
:1034D000F4D914460A9311E6099BA07853F8042BFB
:1034E0000234099322EAE2730A9307E600F0DF034D
:1034F000472B08BF00F0FD000A9B08BF41F40061A4
:10350000452808BF41F020010293099BCDE90351F2
:10351000073323F00705B5EC027B52464346394694
:1035200058468DED007B0995FFF786F901348246F8
:10353000BCE521F010054E0545F0210586D519465C
:1035400012AB0C930A9B524604930C9B019100937F
:10355000082305931023039300230990029339460F
:10356000434658460695FFF767F8013482469DE5C5
:103570006FF0010200287FF427AF31E7524643463F
:103580003946D84716F8010F0AF1010A0028F5D18B
:103590004DE74FF0100921F00C0349050B9303D5BB
:1035A0000B9B23F001030B9369283FF48CAE642836
:1035B0003FF489AE0B9B13F4007040F0528113F47A
:1035C000807140F0C6815E0640F1F080099B53F89F
:1035D000042B0993D2B2002A40F01E810B9820F0F0
:1035E000100340050B9340F11781114612AB0C9369
:1035F0000B9B0191CDE905530A9BCDE903935246FC
:103600000C9B00930023029391E6A07841F4407153
:1036100002349FE5A07841F0C00102349AE50446E7
:10362000824611E621F00C0343F020030B934B0577
:103630004FF01009B4D4BDE7012D40F2F4810AF136
:10364000FF331D4452464346394620200AF1010A01
:10365000D847AA45F6D1099E434656F8040B2A4698
:103660003946C0B2D84705F1010A0996E5E6099B3B
:1036700056469D427FF6DFAE05EB0A00A0EB030A3B
:1036800032464346394620200136D8475645F7D1C1
:10369000D1E6099A954202F1010340F2C88105EB97
:1036A0000A09A9EB020952464346394620200AF18D
:1036B000010AD847CA45F6D130786B1C0993002817
:1036C0007FF4A1AEB7E64FF008090B91642818BF4C
:1036D0000B997FF460AF0B9B5A053FF561AFF2E5A4
:1036E000099B073323F007031A4610465B6850F81E
:1036F000082B002B19461646099060DB0846D90FA7
:1037000013430D913BD00B9B002113F0200F14BFEE
:103710004123612312AA0A3BCDE90EA51094CDF8EE
:1037200044B00D46144682469B460C9203E0202D81
:1037300017D006468A4630464A465146002314F0C2
:10374000A7FBD2B2092A02F1300388BF02EB0B03B8
:10375000DBB24E4504F8013B7AF1000305F10105A7
:10376000E5D22A46DDF838A0109C0F9DDDF844B064
:103770000FE052F8043BDBB209921A46BDE50B9A02
:1037800022F0100352050B93BDD500231A4612AB4D
:103790000C930B9B0192CDE905530A9B5246CDE950
:1037A00003930D9B02930C9B0093C0E513F0800FD5
:1037B000099B53F8042B099318BF92B20BE75642AA
:1037C00063EB43019AE7B246CDF8249035E60B9BB4
:1037D00013F0200F14BF4FF0410E4FF0610E12ABEB
:1037E0009C460C93AEF10A0E03E020293FF493AD02
:1037F0003246B2FBF9F609FB1620C3B2092803F1E1
:1038000030008ABF7344C3B2DBB24A450CF8013BB7
:1038100001F10101E9D27EE50B9B13F0200F14BFEB
:103820004FF0410E4FF0610E12AB9C460C93AEF17F
:103830000A0E03E020293FF4DBAE3246B2FBF9F674
:1038400009FB1620C3B2092803F130008ABF734474
:10385000C3B2DBB24A450CF8013B01F10101E9D2E8
:10386000C6E6099B073323F007035A6853F8086B31
:103870001046099356EA020335D10B9A22F0100341
:1038800052050B932FD500231A4612AB0C930B9BBA
:103890000192CDE905530A9BCDE90393AFE6099B5D
:1038A0001A4652F8043B0D92D90F83EAE372A2EB59
:1038B000E3720991002B68D10B9921F010030B934F
:1038C0004B0562D512AB0C930B9B5246CDE90553C9
:1038D0000A9BCDE90393099BCDE901030C9B00935F
:1038E0000D9B099323E50B9B002113F0200F14BFC0
:1038F0004123612312AA0A3BCDE90DA50F94CDF80F
:1039000040B00D46144682469B460C9203E0202DA3
:1039100017D006468A4630464A465146002314F0E0
:10392000B7FAD2B2092A02F1300388BF02EB0B03C7
:10393000DBB24E4504F8013B7AF1000305F10105C5
:10394000E5D22A46DDF834A00F9C0E9DDDF840B08C
:103950009DE7099B53F8042B0993002A39D10B9951
:1039600021F010030B934B0533D512AB0C930B9B3B
:103970005246CDE905530A9B0190CDE903930C9B78
:1039800000933FE64FF002099FE60B9B13F0200FD8
:1039900014BF4FF0410E4FF0610E12AB9C460C93DA
:1039A000AEF10A0E02E020288ED03246B2FBF9F6C4
:1039B00009FB1621CBB2092903F130018ABF7344F8
:1039C000CBB2DBB24A450CF8013B00F10100EAD270
:1039D0007AE70B9B13F0200F14BF4FF0410E4FF00E
:1039E000610E12AB9C460C93AEF10A0E02E0202849
:1039F000BDD03246B2FBF9F609FB1621CBB209293C
:103A000003F130018ABF7344CBB2DBB24A450CF8F4
:103A1000013B00F10100EAD2A9E7099283EAE372CF
:103A2000A2EBE37269E4554615E60990D9E40993DF
:103A300000287FF4E8ACFEE470B594461E460546C7
:103A40000C4684B04FF0FF32634602A9009603484B
:103A5000CDE90254FFF70CFB04B070BD292800101B
:103A600010B5094B84B01C684CB1034600914FF06F
:103A7000FF3203A90548A047012004B010BD00F0A3
:103A800071F9204604B010BD104E0020212800100E
:103A900000BEFDE7074A0346106838B106490344F3
:103AA0008B428CBF4FF0FF301360704703490846CC
:103AB0001160F3E70445002000000820744F002047
:103AC00008B5FFF7E5FF00BF38B5064D064CFEF719
:103AD000B3FAAC4204D254F8043B9847AC42FAD350
:103AE00038BD00BF687F0110607F01100368084681
:103AF00011461847437D2DE9F04782460F4691460F
:103B0000002B44D0002A2ADD002401252046DFF8BE
:103B10008C804E1E2CB3337816F8012FA3F10D03C1
:103B2000B3FA83F30A2A4FEA531320D02B46994560
:103B300004F1010405F10105ECDC814505DDA9EB8B
:103B40000001DAF80030384498474F4417F8013C38
:103B5000A3F10D03B3FA83F35B098AF81430BDE8CF
:103B6000F08716F8012F9AF814300A2ADED1002BBC
:103B7000DCD1A04204DA211ADAF800303844984740
:103B800040460221DAF8003098472846CEE738460A
:103B9000DAF800301146BDE8F047184740810110BF
:103BA0000B682DE9F041802B0D46064605D05A1CC6
:103BB0002B442A601E71BDE8F0810F4B1C68A4B134
:103BC0000E4F01F1040801E0246974B12368002B51
:103BD000FAD03B680BB1A342F6D1204641462A6891
:103BE000FFF788FF2469002CF0D1002301222B4429
:103BF0002A601E71BDE8F081EC270020F427002028
:103C00002DE9F04782B00D46924699460746FEF7E9
:103C1000BBF82F4A821841F10003002BBCBF4FF0C4
:103C2000FF326FF000432B4814F062F96B1C8046A2
:103C300003D1384613F05EFF0546274B274E1C681C
:103C4000274BB9F1000F08BF1E46B4B1BAF1000FFF
:103C50001AD1DFF8909001E0246974B12368002B39
:103C6000FAD0D9F800300BB1A342F5D120462A464C
:103C70003946B0472469002CF0D1B8F1000F1FD1AC
:103C8000284602B0BDE8F0874FF00A0ADFF85490EA
:103C900002E02469002CF0D02368002BF9D0D9F879
:103CA00000300BB1A342F4D120462A463946B04732
:103CB000204601220DF107018DF807A0B047E8E783
:103CC000044814F0EDF8284602B0BDE8F08700BFC4
:103CD00040420F00D8120020EC270020F53A0010D7
:103CE000ED3A0010F4270020F0B583B006468DF8B9
:103CF0000700FEF749F8174A821841F10003002B2C
:103D0000BCBF6FF000434FF0FF32134814F0F0F8DF
:103D1000124B07461C689CB1114D01E024697CB12F
:103D20002368002BFAD02B680BB1A342F6D12046B2
:103D300001220DF10701FFF7DDFE2469002CEFD110
:103D400017B9304603B0F0BD034814F0A9F8304667
:103D500003B0F0BD40420F00D8120020EC27002035
:103D6000F427002038B5044613F0C4FE01230546AD
:103D70001A4620462946FFF743FF084B1C682CB122
:103D800063682BB198472469002CF9D1284638BDC7
:103D90002469002CF4D1284638BD00BFEC27002050
:103DA0002DE9F041A2B004460D46FDF7EDFF274A8C
:103DB0000026821841F10003002BBCBF4FF0FF32F8
:103DC0006FF00043224814F093F82B460746224632
:103DD000204801A90196FFF72FFE019B06467BB9FB
:103DE0001D4B1C682CB1636843B198472469002CB3
:103DF000F9D10FBB304622B0BDE8F0812469F1E76C
:103E0000DFF85480D8F80050EDB1144C01E02D6972
:103E100075B12B68002BFAD023680BB19D42F6D107
:103E20002846019A02A9FFF765FE2D69002DF0D101
:103E3000D8F800400195D5E7054814F031F8304630
:103E400022B0BDE8F0810195D3E700BF40420F00EA
:103E5000D8120020A13B0010EC270020F4270020FE
:103E60000FB400B583B004A951F8040B0191FFF71A
:103E700097FF03B05DF804EB04B0704701230748D7
:103E80000749084A03600B609368D907FCD50123F2
:103E9000054A13601368DB05FCD57047002002401B
:103EA000003002400000024000000A40704700BF9E
:103EB000704700BF0346002201201A60704700BF10
:103EC0002DE9F04F05788BB00F2D0646019334D8BD
:103ED0000F4614462946DFF86880DFF868B0D8F846
:103EE000000001F10109D0F800A01C23D8F804005B
:103EF00003AA41EA0B015FFA89F5D047C8B10498DB
:103F0000BDF8143038600120DDF81A20BB806260F3
:103F1000DDF81E20DDF81630A260DDF822202360D7
:103F2000E260BDF82630019A138035600BB0BDE821
:103F3000F08F0F2D4946D2D9F7E70020F5E700BFF3
:103F40001C4F0020004C54422DE9F043002407464A
:103F5000114DDFF8489089B0296844EA0906D1F884
:103F600000801C233146686801AA0134C04768B14B
:103F70000622384602A913F02BFC38B92B683146CB
:103F80009B686868984709B0BDE8F083102CE3D1BE
:103F900009B0BDE8F08300BF1C4F0020004C544224
:103FA00000232DE9F04F91B01C469A46834698466F
:103FB0009946CDE906123D4E0593049318E006227A
:103FC00058460AA913F004FC099B994538BF994645
:103FD000002808BFAA46B8F1000F04D0049A934203
:103FE00024BF454613460134102CA84604930ED036
:103FF0002F4D3268254317681C232946706809AA8B
:10400000B8470028DBD10134102C0595F0D1059C70
:1040100097230120CDE900A4264A2749CDF808803E
:104020000AF0E4F9BAF1000F33D164B3059CA6237A
:104030000120204A214900940AF0D8F9079BDBF8B7
:104040000000ADF83E3009F101030A90099306988B
:10405000BBF804302146ADF82C30036809AACDF82E
:104060002E304368CDF832308368CDF83630C368DF
:104070003068CDF83A3044681C237068A04758B9BE
:1040800011B0BDE8F08FB8F1000FF9D0CDF8148071
:10409000CCE7CDF814A0C9E7B1230220054A0849AE
:1040A0000AF0A4F911B0BDE8F08F00BF1C4F00204A
:1040B000004C54424481011060810110A481011020
:1040C000C08101102DE9F04F002480460D468DB0CF
:1040D0001E4EDFF88090DFF880B00392326844EA29
:1040E0000907D2F800A01C233946706805AA0134DC
:1040F000D04720B306A803F0D5FD5A46CDE900709D
:10410000134901205F230AF071F90622404606A9EF
:1041100013F05EFB98B90120DDF81E30DDF82A208F
:104120002B60DDF82230EA606B60DDF82610BDF808
:104130002E30039AA96013800DB0BDE8F08F102CCB
:10414000CCD100200DB0BDE8F08F00BF1C4F002087
:10415000E0810110004C544244810110704700BFBF
:10416000704700BF0246024B0248C3E90021704776
:104170001C4F0020F881011070B586B068461B49BD
:1041800003F000FA684603F003FA60B3684603F0F0
:1041900011FA837D0546012BF4D102221123144E1E
:1041A000124903A8AA7585F82630348803F0EAF985
:1041B00005E003A803F0FEF9438CE31A9CB203A8C0
:1041C00003F0E6F90028F4D133880A4E1B1B2B8438
:1041D000AB88688441F224120748AC8405F10801D9
:1041E000338001F017FF06B070BD00BF404A0020C9
:1041F000464F0020484F0020FD4100102DE9F04FB0
:10420000B64F8BB0B64906A815463E8803F0BAF9FA
:1042100006A803F0BDF9002800F0558106A803F0B8
:10422000C9F9838804469E42F2D12A78912A36D071
:10423000942A29D10421284603F034FC082106469B
:10424000284603F02FFC40F206229642074695F8D6
:104250000A8000F020811AD8042E01D00D2E13D12F
:104260000621284603F01EFC202800F2B780DFF864
:104270008C922846062109F8078003F013FC7B1C6A
:104280009BB2834200F0A1810BB0BDE8F08FA6F293
:104290000F239BB2012BE3D90BB0BDE8F08FAD78B3
:1042A000002D00F0AB80812D39D11A46EF23002676
:1042B0008DF818300223032106A88DF81A303E80AD
:1042C00003F000FC0DF11E0104F108008DF81D50F3
:1042D00003F03EFC0C21E28806A803F0F3FB0D215D
:1042E000E37D06AA8DF826307E4B1D688DF81910E7
:1042F00004200F23A188A847608AE5896682E681A9
:10430000002868D1002D40F010812146744803F048
:1043100021F920460BB0BDE8F04F03F0ADB9E27EC5
:10432000022AC2D11A46EF250E23032106A88DF8D2
:104330001A308DF8185003F0C5FB0521A28B06A892
:1043400003F0C0FB0721E28B06A803F0BBFB0721AB
:10435000DFF890818DF81910D8F800600923042047
:10436000A18806AAB047E67D002E40F014814FF0E8
:10437000030B04F10E0C04F1080A84F816B04FF692
:10438000FF73112251465848CDF800C00DF022FCB1
:10439000814600283FF478AF02238DF818508DF83D
:1043A0001A30A288594606A83E8003F08BFB50467F
:1043B0000DF11E018DF81D9003F0CAFB0C21E2885F
:1043C00006A803F07FFBE37D0D21D8F8005006AA74
:1043D0008DF826308AE70DF09DFC93E706212846EC
:1043E00003F060FB202405464FF425730220CDE93D
:1043F00000453E4A3E4909F0F9FF45E7228A0AB1E5
:10440000A28A22B9E27E022A8CD011254DE70E2322
:10441000EF27E5753246032106A88DF81A308DF88E
:10442000187003F04FFB0521A28B06A803F04AFB8E
:104430000721E28B06A803F045FB0721294D8DF8E3
:1044400019102E6809230420A18806AAB047E67D2A
:10445000002E6ED0012308226376E3760D23A27529
:104460008DF81A308DF81870A28806A8032103F081
:1044700029FB94F8263004208DF81D3006232D6882
:1044800006AA8DF81900A188A847E0890BB0BDE8FD
:10449000F04F0BF059B8002836D10122154D1649BE
:1044A0002A70164E0A60304606F8078001F01EFE9C
:1044B000062840F07B81304601F01CFE0223104AA2
:1044C0002B701060E0E63C8840F221230220074A6E
:1044D0000C49009409F08AFFD6E600BF484F00203F
:1044E000404A0020004A0020814B00101C8201102D
:1044F00098820110714F0020AC1E0020544A002009
:10450000A81E0020E4820110B04D29784B1E082B14
:104510003FF6BAAEDFE813F07D016C013D013001DA
:1045200018010601F800E400C20028460DF0F2FB75
:10453000EBE64FF0030A04F10E0C04F10809228A9D
:1045400084F816A04FF6FF734946A148CDF800C085
:104550000DF040FB804600283FF496AE02238DF814
:1045600018708DF81A30A288514606A803F0AAFAEE
:1045700048460DF11E018DF81D8003F0E9FA0C216B
:10458000E28806A803F09EFAE37D0D212D6806AAB5
:104590008DF82630AAE6012308226376A2750D2342
:1045A0000022E2768DF818508DF81A30A28806A8FD
:1045B000032103F087FA94F8263004208DF81D308B
:1045C000D8F80050062306AA5BE740F20F239E426C
:1045D00000F03581B6F5047F80F01F81042E00F0D5
:1045E00041810D2E7FF450AE02AD4946284601F0C0
:1045F0001FFE784F784E02E0284601F07BFE2846E9
:1046000001F068FE00283FF43FAE284601F05CFE52
:104610000628F1D1284601F065FE014604A801F004
:1046200007FE04F1140802E004A801F063FE04A8E8
:1046300001F050FE0028DFD004A801F045FE062856
:10464000F2D104A801F04EFE014606A801F0F0FDEB
:1046500006A801F047FE814601F048FD0328E3D19A
:10466000484601F0ADFDB0F5807FDDD106A801F030
:1046700031FE0028D8D006A801F03CFE06A801F0C3
:1046800031FE414601F08CFDA38A3A460093314643
:104690004FF41C73012009F0A9FEC5E7638CA28CBE
:1046A0009A4240F284804D4A1068228C034403F8F9
:1046B00002804B4A4B4B618C1E68136801310133F9
:1046C00089B2B34261841360FFF4DEAD0023228C13
:1046D00084F82630104403F063FA0A232B70D3E5E4
:1046E0003F4B404C196840484A1C00F80180216843
:1046F0001A608A42FFF4C8AD00221A6001F008FD7A
:10470000092320602B70BFE53549364A0B681268D3
:10471000013393420B60FFF4B7AD002205230A601A
:104720002B70B1E52E4930480A682E4C531C00F816
:10473000028022680B609342FFF4A6AD01F0FEFCFC
:10474000072320602B709FE5254A274C13682046DD
:10475000591C04F80380116001F0CCFC214E30603C
:10476000204601F0C3FC042879D03368012B40F2C5
:10477000C78006232B7087E519491A480A68006824
:10478000531C194C83420B6004F80280FFF47CAD8B
:10479000C3E7134A144E1368304606F8038001330A
:1047A000136001F0A3FC062800F0A280297840F2F3
:1047B0000923084A009101200C4909F017FE002244
:1047C00007232A7084F826305EE500BF714F002071
:1047D000814B00101C82011074820110444A002099
:1047E000AC1E0020A81E0020544A00202882011080
:1047F0004A4B4B48196800684A1C4A4C82421A606E
:1048000004F80180FFF440AD0021032219602A70F2
:104810003AE542490F687A1C43E67FF435AD4846D5
:1048200001F064FC01287FF42FAD484606A901F091
:10483000B7FC00286BD0BDF81830E38324E5484668
:1048400001F054FC01287FF41FAD484606A901F091
:10485000A7FC00285ED0BDF81830A38314E5082318
:104860002B7011E502AD4946284601F0E1FCDFF866
:10487000BC802D4F04F1100602E0284601F03AFDFD
:10488000284601F027FD00283FF4FEAC284601F041
:104890001BFD0628F1D1284601F024FD014606A89B
:1048A00001F0C6FC06A801F01DFD814601F01EFCCA
:1048B0000328E2D1484601F083FCB0F5807FDCD1CB
:1048C00006A801F007FD0028D7D006A801F012FDC8
:1048D00006A801F007FD314601F062FC238A42463A
:1048E0000093394640F25923012009F07FFDC4E7C7
:1048F000304601F0FFFB0423094A2B701060C3E42B
:10490000204601F01BFC072330602B70BCE44FF6FF
:10491000FF7392E74FF6FF739FE700BFAC1E0020C6
:10492000A81E0020544A0020548201101C8201104D
:1049300010B584B004460A4901A802F023FE01A87C
:1049400002F026FE48B101A802F034FE8388A3429B
:10495000F5D1044A038C1068184404B010BD00BFA0
:10496000404A0020444A002010B584B0044608495B
:1049700001A802F007FE01A802F00AFE30B101A86A
:1049800002F018FE8388A342F5D1408C04B010BD1C
:10499000404A00200C4B0D4A10B51180186004F0FD
:1049A000B9FE0B4C03464FF6FF72132120460DF063
:1049B00049FA04F0AFFE4FF6FF720346112120467C
:1049C000BDE810400DF03EBA444A0020464F00209A
:1049D000814B0010014B1860704700BF004A002057
:1049E00030B585B004460D4601A80F4902F0CAFD56
:1049F00001A802F0CDFD98B101A802F0DBFD82888C
:104A00000346A242F4D1827D032A02D00C2005B0D5
:104A100030BDD889DD760DF0A1F9002005B030BD9C
:104A2000022005B030BD00BF404A0020002A63D0FC
:104A30002DE9F04F87B005460F4603A835491646C5
:104A400002F0A0FD03A802F0A3FD80B103A802F0CC
:104A5000B1FD04460622284604F1080112F0B8FE12
:104A60000028EFD11CB10C2007B0BDE8F08F02F098
:104A7000F5FD0446002843D04FF6FF710020264A7A
:104A8000A07513888B4239D001339BB24FF00008D8
:104A90004FF6FF7BA380C4F80E80C4F81280A4F800
:104AA00006B013802B682146A360AB881948A38108
:104AB00002F042FD01231122A18804F10E0A318087
:104AC00004F10809E776E38284F8262047B1134B06
:104AD0001348436001F080FA404607B0BDE8F08F0C
:104AE00003205B46A0754946CDF800A00D480DF0A7
:104AF00071F807B0BDE8F08F0C2070470123C5E7BF
:104B0000022040F26313084A084909F06FFC56205E
:104B1000AAE700BF404A0020444F0020794100101E
:104B2000484A0020814B00101C8201101C83011098
:104B300010B584B00446114901A802F023FD01A874
:104B400002F026FD78B101A802F034FD8288034608
:104B5000A242F4D1827D32B1113A012A03D9588A96
:104B600050B9D88908B904B010BD12229A7504B0A2
:104B7000BDE810400DF0CEB81122F7E7404A002002
:104B80002DE9F04F04280C4615468BB071D006284D
:104B90006CD106AE30467F49984602F0F3FC3046B1
:104BA00002F0F6FC002861D0304602F003FD438A93
:104BB0000746A34200F0B983C389A342EFD12B7803
:104BC0004FEA1319B9F1010F00F03C8403F00F0410
:104BD000BB7D043B0A2B00F24282DFE813F04D025A
:104BE000400240024D02DE0240021B03400202036B
:104BF0004002B6020DF110084146A81C062206AE7E
:104C000002F09AFF3046634902F0BCFC304602F0E5
:104C1000BFFC002800F04881304602F0CBFC07467C
:104C20000622404607F1080112F0D2FD0028EDD11E
:104C30000A21284602F036FF112800F04E81132881
:104C400040F03B811FB1BB7D072B00F0B58440468F
:104C500003F028F840F2AA3305464F4A4F49022094
:104C6000009509F0C3FB20460DF0B2F80BB0BDE88B
:104C7000F08F1378703B092BF8D801A252F823F07B
:104C8000A54D0010FF4C0010F54B00106D4C0010AE
:104C90006D4C00106D4C00106D4C00106D4C0010F0
:104CA0006D4C0010A94C00100221284602F0FAFEBB
:104CB00006AE05463749304602F064FC304602F045
:104CC00067FC0028D2D0304602F074FC438A0446C8
:104CD0009D42C28900F02884AA42EFD1827D043A25
:104CE000092A00F2E581DFE812F00502E301E301A1
:104CF0000502B9020603E301E402E301D80202213E
:104D0000284602F0CFFE06AE04462249304602F0A5
:104D100039FC304602F03CFC0028A7D0304602F0B7
:104D200049FC438A0546A34200F02183C389A3427C
:104D3000EFD10324EF230022EA818DF818308DF89B
:104D40001A4021463046AA8802F0BCFE14498DF86C
:104D5000194005230C6832460420A988A0476C8CB2
:104D6000002C40F056810023688AEC892B626B820C
:104D7000EB81002840F06F82002C40F04D842946E2
:104D8000044802F0E7FB28460BB0BDE8F04F02F004
:104D900073BC00BF404A00201C820110D083011068
:104DA000004A00200DF110084146E81C062206AE1C
:104DB00002F0C2FE3046C44902F0E4FB304602F085
:104DC000E7FB002800F06283304602F0F3FB044664
:104DD00004F1080906224046494612F0F9FC07464C
:104DE0000028EBD1002C00F0518395F802A0BAF115
:104DF000000F40F0CD80E77D002F00F0C682A37D3C
:104E0000032B00F08283072B7FF430AF02234FF097
:104E1000EF0B4FF00D088DF81A308DF818B0A288FE
:104E20000321304602F04EFE48460DF11E018DF87A
:104E30001DA002F08DFE0C213046E28802F042FEF9
:104E4000E37DA24D8DF826308DF819800F23324670
:104E500004202F68A188B8470823A375E37E002BA0
:104E600040F0CA838DF818B08DF81A803046A288B9
:104E7000032102F027FE042032462E68012594F813
:104E800026308DF819008DF81D30A1880623B04713
:104E9000E08965760AF058FB4FF4787328468C4A0F
:104EA0008C4909F0A3FAE1E60A21284602F0FAFD4E
:104EB000112815D013283FF4CAAE404602F0F2FE86
:104EC000054640F2B6330120814A8349009509F036
:104ED0008DFA20460CF07CFFC8E6002F7FF4C3AEAD
:104EE00002F0BCFB0746002800F09D834FF6FF71DF
:104EF00000207A4AB87513888B4200F09283013300
:104F00009BB213804FF6FF72BB8000230498FA8097
:104F1000B860C7F80E30C7F81230B8F80430394618
:104F2000BB81694802F008FB03241123082187F89C
:104F30002630BC75284607EB010802F0B3FD034696
:104F40000C21FB80284602F0ADFD01230546EF222F
:104F5000FB75FD818DF81A308DF81820BA8821462E
:104F6000304602F0AFFD40460DF11D0102F0F0FDAC
:104F70003046FA880B2102F0A5FD0B2153480D2382
:104F800004688DF8191032460420B988A0476DE6F0
:104F9000404602F087FE40F2C733CDE9000A4C4A92
:104FA00001204F4909F022FAEF238DF8183002232F
:104FB0008DF81A30A2880321304602F083FD48465E
:104FC0000DF11E018DF81DA002F0C2FD0C2130462E
:104FD000E28802F077FD0D21E37D8DF819108DF840
:104FE00026303A4B04201D6832460F23A188A8477B
:104FF000608AE5896782E78100283AD1002D40F078
:105000008F822146304802F0A5FA204602F034FB98
:105010002CE6344B288C1968334B27181A88BFB2FA
:105020000844D21B394412F079FC3046264902F07C
:10503000A9FA304602F0ACFA00283FF494AE3046AC
:1050400002F0B8FA8542F4D0038C9F429CBF1B1B30
:105050000384304602F09CFA0028F0D183E640F247
:10506000633301201A4A214909F0C0F90823BB75AE
:10507000FCE50CF04FFEC1E7BB7E002B3FF4F6AD24
:105080000025BD76002C40F0FA8207F1120307F1EB
:105090000808BA8A4146009315484FF6FF730CF092
:1050A00099FD0546002840F093830723BB75DDE595
:1050B00094F82C30002B3FF4D9ADE0890BB0BDE85B
:1050C000F04F0AF041BA00BF404A0020004A0020D9
:1050D0001C820110B0840110D0830110444F0020C5
:1050E0004C840110444A0020464F00207C8301106C
:1050F000814B0010627E002A40F035839D42D7D15B
:10510000A27D0F2AD4D10823A37594F828500AF061
:1051100029F80AF021F84FF6FF7345F0A005057055
:10512000628D9A4216BF0223012342701D46216BF5
:10513000A28E184412F07CFBA18E608A294489B2A9
:105140000BB0BDE8F04F0AF055B8B9F10A0F97F867
:10515000188006D195F80180B8F1020F34BF002401
:105160000424EF230A228DF818308DF81A20032129
:105170003046BA8802F0A6FC0521CB488DF81D40C8
:105180008DF81E808DF8191007230468324604201C
:10519000B988A0470823BB7568E5BB7E002B3FF4A8
:1051A00065AD0023BB760CB9FB7E3B760B23EF226B
:1051B0008DF81A308DF818203046BA88032102F095
:1051C00081FC05218DF81D403A7EB74B8DF81E20DD
:1051D0001C688DF81910324607230420B988A047AF
:1051E00044E50923EF228DF81A308DF818200321A9
:1051F0003046BA8802F066FC0420AB4B8DF81D40A7
:105200008DF819001C6832460623B988A047082388
:10521000BB752BE5B9F1000F40F0A681EF230825FF
:105220008DF818308DF81A503046BA88032102F0F4
:1052300049FC4A46304606218DF81D4002F042FCEA
:10524000062199488DF8191004682B46324604202F
:10525000B988A0470AE70CF05DFD8DE594F82C3085
:10526000D80700F17282990700F190825A0700F185
:105270009182627E002A3FF41DAF4FF48077E37E77
:10528000314643F070038DF8183001222846A4F807
:1052900019700AF0B7F9638A30E70E2360273146A8
:1052A0008DF818700122A37528460AF0ABF9638ABD
:1052B00024E70C23A37594F8286009F053FF09F044
:1052C0004BFF4FF6FF7346F050060670628D9A4210
:1052D00014BF022301231E4618BF4270A28E184439
:1052E000216B12F0A5FAA18EE089314489B209F050
:1052F00081FF638A02E74FF6FF7294F82830314647
:1053000043F040038DF81830638D2846934218BF50
:105310008DF819304FF00A0318BF0222A37508BF99
:1053200001220AF06FF9638AE8E60C23EF22EC1FF2
:1053300005F8053C05F8072C82880321204602F079
:10534000C1FB42462046052102F0BCFB56492246DD
:105350000C680420A44608F1050305F8063CB9884A
:1053600008F107039BB20BB0BDE8F04F6047002285
:10537000837D4282112B7FF479AC1223E889AB75CF
:105380000BB0BDE8F04F0CF0C5BC94F816A0BAF114
:10539000030F00F09180BAF1070F7FF467AC4FF074
:1053A000080EB4F804C084F816E0CDF808C0B4F8CC
:1053B00012C04FF48263CDF804C0B4F80EC00120CF
:1053C000CDF800C0394A3A4909F010F84FF0EF0A19
:1053D00002234FF00D088DF81A308DF818A0A2881E
:1053E0003046032102F06EFB48460DF11E018DF898
:1053F0001D7002F0ADFB3046E2880C2102F062FB2A
:10540000E37D294D8DF826308DF819800F23324623
:10541000A1882F680420B8478DF818A08DF81A804D
:105420003046A288032102F04DFB042094F8263078
:105430008DF819008DF81D30324606232D68A1889D
:10544000A84713E403F00F04052C00F0FD80BB7D9A
:10545000043B0A2B3FF603AE01A252F823F000BF33
:10546000795000105F5000105F500010795000100C
:105470009B5100105F5000106D5000105F500010E5
:10548000E35100105F5000104B510010404602F0F5
:1054900009FC044640F2C1330220044A0549009445
:1054A00008F0A4FFFFF7E2BB004A00201C820110B5
:1054B000A085011028840110E37E0120B74AB84975
:1054C000009340F2F63308F091FF2846092102F0DC
:1054D000E9FA0427E37EE08013F0FD0FA77500F0E2
:1054E000828004F11203A28A41460093AD484FF630
:1054F000FF730CF06FFB0546002840F0F88007238F
:10550000E27EA3752276FFF7B1BB07254FF47573D2
:105510000120A24AA449A57508F068FFFFF7A6BBC1
:1055200028460CF0F7FB6CE5AA427FF4E9AD827DDA
:10553000111F09293FF6E5AD01A050F821F000BF89
:10554000F55000100351001003510010F5500010E9
:105550005D520010F752001003510010B3520010BA
:10556000035100109B520010B9F10A0F7FF47EAD79
:10557000EF2305F8073C0823EE1F05F8053C3046ED
:10558000BA88032102F09EFA002308F1FF34A4B286
:105590002246304605F8023C062102F093FA063412
:1055A000824905F8064C08F107030C6832460420CE
:1055B000B9889BB2A04759E50C21284602F072FA3F
:1055C000034640467B8202F06DFB054640F2B13354
:1055D0000120724A7649009508F008FF20460CF039
:1055E000BDFBFFF743BB01221323E0896276A38250
:1055F00009F0AAFFFFF73ABB4FF479730120674A1D
:105600006C4908F0F3FE01236B4A6C48A3754260B5
:1056100000F0E2FCFFF72ABB20460CF07BFBFFF713
:10562000AEBB01236DE440F263135C4A644902207F
:1056300008F0DCFE404602F035FB4FF46673054689
:10564000564A6049FFF70BBB0723EF228DF81A304B
:105650008DF818203046BA88032102F033FA03216E
:1056600052488DF81910234632460468B988042040
:10567000A047B8880BB0BDE8F04FFFF759BA022336
:10568000EF228DF81A308DF81820BA8803213046A1
:1056900002F018FA11230DF11E0107F108008DF830
:1056A0001D3002F055FA0C213046FA8802F00AFA51
:1056B0000D21FB7D8DF819108DF826303B4B042011
:1056C0001C6832460F23B988A047788AFC897D82FE
:1056D000FD8148B9002C40F0B68039463A4801F0C7
:1056E00039FF3846FFF750BB0CF014FBF2E700908F
:1056F00040F204430120294A344908F077FEEF23A1
:105700008DF8183002238DF81A30A28851463046A1
:1057100002F0D8F948460DF11E018DF81D5002F037
:1057200017FA3046E2880C2102F0CCF90D21E37D16
:105730008DF819108DF826301C4B32461D683846FE
:105740000F23A188A847FFF791BA132723F001037D
:1057500084F82C303146012228468DF8187009F063
:1057600051FF638ACAE4E37E4FF48077003B18BFA1
:10577000012343F070038DF818303146012228468A
:10578000A4F8197009F03EFF638AB7E4142723F0E8
:105790000203DDE7152723F00403D9E71C8201107B
:1057A0002C850110814B001078840110004A0020E4
:1057B000F4830110EC84011079410010484A002064
:1057C0001C830110A8830110404A00206C85011041
:1057D0004FF449731E4A1F490090012008F006FE4D
:1057E000EF238DF8183002238DF81A30BA88032180
:1057F000304602F067F940460DF11E018DF81D504C
:1058000002F0A6F90C213046FA8802F05BF90D216E
:10581000FB7D8DF819108DF826300F4B04201D6884
:1058200032460F23B988A847788AFD897C82FC819B
:1058300030B9002D3FF451AF28460CF06BFA4CE71D
:105840000CF068FAF5E720460CF064FA45E700BF73
:105850001C8201104C830110004A00202DE9F04FFA
:10586000062814468BB00CD00428064606D11378BF
:10587000712B7BD0792B56D0702B21D00BB0BDE88B
:10588000F08F022B1D46F9D90121104602F022F9B2
:10589000814B1E8883B29E4240F0A28026787F4BC7
:1058A000012E1E7000F0A780072E00F0B48040F299
:1058B000E31302207A4A7B49009608F097FDDDE762
:1058C000794D95F80080B8F1010FD7D19378002B6E
:1058D00000F05E824046724A74490093912740F27C
:1058E000FB1308F083FD0021A37830468DF81E30AD
:1058F0006F4B8DF81D801C6807AA03238DF81C7060
:105900002970A0472B78002BB8D16A4C05E0D0E96C
:10591000013098472B78002BB0D1204601F02CFEA7
:105920000028F4D1AAE70221104602F0BBF8624B2E
:105930001C888442A2D15C4E3578022D9ED109F09C
:1059400011FC09F009FCDFF85481074698F800C003
:10595000BCF1070F00F04A824FF4CB732846504A3F
:105960005649CDF800C008F041FD87E702211046F6
:1059700002F098F8504B1B8883427FF47FAF40F2CF
:1059800012230120464A4E4908F030FD0021464DC1
:1059900091222B788DF81C20042B4FF001030CBFB3
:1059A0000C4681248DF81D30414B8DF81E40304649
:1059B0001C6807AA03232970A0472B78002B7FF4CB
:1059C0005DAF3C4C06E0D0E9013098472B78002BC6
:1059D0007FF454AF204601F0CFFD0028F3D14DE70E
:1059E00018462F4ACDE9006040F2CD130220354918
:1059F00008F0FCFC42E7A47802204FF4EA73284A3E
:105A00003149009408F0F2FC2B4B18880BB0BDE82C
:105A1000F04F0CF07FB9062D40F2AD8103212046F6
:105A200002F058F880B2431D9D42C0F2A4810521C6
:105A3000204602F04FF8254B82B21B880392934216
:105A4000C0F0928180B2C31D9D42C0F294810028B3
:105A500000F08A80A61D3318CDE904451D46DFF805
:105A600074901B4FDFF870A0B9F8003016F8014FA2
:105A70000133A9F800303B8801333B809AF80030AD
:105A8000013B052B6CD8DFE813F0B4008F004D010B
:105A9000DD00F600290000BF504F00206E4F0020AF
:105AA00008860110848701106F4F0020A88701101D
:105AB000E04E0020D84E0020600A0020DC87011054
:105AC0001C88011018860110548601104E4F0020CA
:105AD0005E4F00205A4F0020704F002040F6941374
