:020000041000EA
:1000000000B5324B212058609868022188439860DF
:10001000D860186158612E4B002199600221596106
:100020000121F02299502B49196001219960352056
:1000300000F044F80222904214D00621196600F024
:1000400034F8196E01211966002018661A6600F04E
:100050002CF8196E196E196E052000F02FF8012189
:100060000842F9D1002199601B49196000215960AB
:100070001A491B48016001219960EB211966A021F2
:10008000196600F012F800219960164914480160C1
:100090000121996001BC002800D000471248134993
:1000A000086003C880F30888084703B5996A0420EC
:1000B0000142FBD001200142F8D103BD02B5186610
:1000C0001866FFF7F2FF186E186E02BD00000240BE
:1000D000000000180000070000035F00212200005C
:1000E000F4000018222000A00001001008ED00E03C
:1000F00000000000000000000000000074B24E7A12
:1001000000200420F7010010CB010010CD010010E9
:10011000C9010010C9010010C9010010C901001077
:10012000C9010010C9010010C9010010CF01001061
:10013000C9010010C9010010D1010010D301001045
:10014000C1010010C1010010C1010010C101001067
:10015000C1010010C1010010C1010010C101001057
:10016000C1010010C1010010C1010010C101001047
:10017000C1010010C1010010C1010010C101001037
:10018000C1010010C1010010C1010010C101001027
:10019000C1010010C1010010C1010010C101001017
:1001A000C1010010C1010010C1010010C101001007
:1001B000C1010010C1010010C1010010C1010010F7
:1001C000EFF30580103800BE00BE00BE00BE00BECA
:1001D00000BE00BEF2EB8871A0880510C088051033
:1001E0003802001090A31AE71E481F49086006C88D
:1001F00081F3088810471D480068002801D019487D
:10020000F3E70DA40ECC002902D000F012F8F9E7B4
:100210001749184A002000E001C19142FCD116495B
:100220008847164988471649884700BEFDE701C937
:1002300001C29A42FBD37047C0880510C00000205D
:10024000280F00202897051000000420000004203B
:100250002897051000100420001004200000000062
:10026000704700000000000008ED00E0000000D032
:10027000280F00208C4D00204D420010D1020010AC
:1002800045420010F8B5C04610B5064C2378002B47
:1002900007D1054B002B02D0044800E000BF01232A
:1002A000237010BD0812002000000000648D0110B2
:1002B000044B10B5002B03D00349044800E000BFF5
:1002C00010BDC046000000000C120020648D01101B
:1002D000F0B5DE4657464E464546E0B58BB000F0D9
:1002E0005BFC041E08D0012040420BB0F0BCBB46B2
:1002F000B246A946A046F0BD04210C2000F096FCB1
:1003000004210D2000F092FC0421122000F08EFC4C
:100310000421132000F08AFC04210E2000F086FC4A
:1003200004210F2000F082FC1420042100F07EFC48
:100330009021D84BD84AD94DDA679A615A50DA627F
:10034000FF2208395A5014315A625A509A637B3A44
:100350009C5014321C629C502B68D14E9BB233606F
:10036000D04BD14C1A68012319009143CF4A116038
:100370001900CF4A12689143CE4A11601900CE4A43
:1003800012689143CD4A1160CD4A12689343CD4A19
:10039000136004F067F91F211A2000F047FC0022C7
:1003A0001A20110000F05CFC00211A2000F0E4FC8F
:1003B000E0222368D2011340C34A962013602B68C1
:1003C00080256D006B409BB23360800001F056FCCD
:1003D0000422BE4B1A6023682B42FCD08022962058
:1003E000636852049BB29B46AA4B80001A6201F0DC
:1003F00045FC0422B54BAC491A60FC320B68134231
:10040000FCD096204B6880009BB20393A14B1A62EC
:1004100001F034FC04228021AC4B49001A60A24A4E
:1004200013680B42FCD000249620536880009DB2D4
:10043000984B05951C6201F021FC039AA246934556
:100440000AD0AB4508D0AA4206D0944B944A1B6808
:100450009BB2136001239A46012399468D4B0024D9
:1004600098465B466425D346270026009A4629E035
:1004700001331A041343414684228B50002C00D0D0
:10048000CBE080235B049822414600208B5001374B
:10049000310012F0F9FEBD4211D873425E418C4B1F
:1004A000F6B21B78013BDBB2022B02D8894A9B00D3
:1004B000D5582800052101F0D3FF002705000520AD
:1004C00001F0DCFB06A800F0C7F9069B0193079B2F
:1004D0000293029A019B134001221A4206D0002C7B
:1004E00000D1A9E0013C63425C41640006AB9B7B08
:1004F000002B3AD0042B01D1053B99465B46002BDB
:1005000038D106AB1B7A802B25D88022D31A5B000A
:10051000753A9A42924113404246136206AB1B7BE6
:100520000B2BA5D806AB5B7B01330B2B00DC002328
:100530004A4601327BD0842241468B500023002C56
:10054000A1D0A31E5A1E9341BF225B429343624A2D
:100550009446634497E70B227F3B59008A429241BD
:100560005B04134042461362D8E7012399465B4679
:10057000002BC6D006AB197A1B7A5BB2002B00DACF
:10058000AEE08023039A5B1A5343524651435B18F3
:10059000042180204D4ADB091160434940000A686C
:1005A0000242FCD04A6851461204C91A120C019149
:1005B0009A4502D25146591A01910398C11A8C46A4
:1005C000834201D9191A8C460598C11A04918342B5
:1005D00001D9191A0491942001998000814255D3C0
:1005E00061462F2900D88BE0A021080004992F290B
:1005F00002D830210800059B991A0291934201D23A
:10060000D11A029101000298884217D2234B244A42
:100610001B681B041B0C136080E7A31E5A1E93412A
:10062000BF225B4293432D4A944663442BE78422C6
:1006300041461B048B5081E7012457E79421019820
:100640008900884256D3C139FF39080061462F29F5
:100650000DD904992F290AD9029802998446C90014
:100660006144C900090B48310904090C0800934290
:100670004AD9802342465B0013620100074B1B6886
:1006800059400904064B090C196047E700215346FD
:100690000800B1E700000540FF0F000034000540EE
:1006A000341005407800054000C004407810054033
:1006B00014000540141005408C0005408C100540C6
:1006C000280005402810054000D0044000E0044008
:1006D00008060020688D01100001400000010001A3
:1006E000FF225346521A5A430B0005997F3B4B4356
:1006F000D3184DE7434600221A6290231800BCE746
:100700003021039B080077E7802342465B04136295
:10071000B3E7C046F0B53B4FA5B0050038880C00E4
:1007200004F020FD0600388804F038FD013C013556
:10073000A4B20200310000950123019405A807F03E
:10074000DDF8314D314E05A807F002F9002825D01B
:100750000E2203AC04AB21006A4405A807F05EFA40
:100760002388012B1CD0092BEDD16B46DB89002B94
:10077000E9D0049A002A1CD00121013B9940234A68
:100780000B001068014202D15168194351600343C4
:1007900005A8136007F0DCF80028D9D125B0F0BD1A
:1007A0006B46DB89303B9BB2092BCCD89B00EB58C6
:1007B0009F460121013B9940144A0B0010680142F9
:1007C00002D051681943516098431060BBE70F4B4A
:1007D000049A1A72B7E70D4B049A9A72B3E70B4B5F
:1007E000049A5A72AFE7049BB373ACE7049BF372AD
:1007F000A9E7064B049A5A73A5E7044B049A1A73A7
:10080000A1E7C0465A4D0020748D0110244B0020F2
:1008100010B50EF047F90123094A1370094A137005
:100820000022094B1A80094B1A70094A094B13CB55
:1008300013C21B68052013600EF00EF910BDC046F0
:100840007B4D0020080600205A4D00207E4D0020E0
:10085000244B0020DC8D011010B5044C1022210027
:1008600002F0ECF90023636010BDC046244B002069
:100870001D4B70B51B68002B09D01C4A1C4C10681E
:100880001D68220006231B49A847062813D0012310
:10089000194A1370194A13700022194B1A80194B08
:1008A0001A70194A194B13CB13C21B680520136029
:1008B0000EF0D2F870BD0226154D104B28001549D8
:1008C0001E7007F0ADFC2800134907F07DFC2800DE
:1008D00007F0B2FC084B20001E70104B084A197834
:1008E00004F0BEFCE6E7C0469C1B0020941B0020E1
:1008F000584B002044474F487B4D002008060020FD
:100900005A4D00207E4D0020244B0020DC8D01102C
:10091000041C0020204E00001108001009060020D1
:1009200070B5104C2378032B04D0042B01D1FFF7B2
:100930009FFF70BD02260C4D0C4B28000C491E7009
:1009400007F06EFC28000B4907F03EFC280007F07A
:1009500073FC094B094A19780948267004F080FC99
:10096000E7E7C0467B4D0020041C0020080600205D
:10097000204E000011080010090600205A4D0020EA
:10098000584B0020F0B5140083B004280BD1137825
:10099000DC2B4CD009D8162B3FD0602B14D1937888
:1009A000022B00D171E003B0F0BDDD2B20D0EF2B86
:1009B000F9D1684D2B78022BF5D193780D2BF2D815
:1009C000654A9B00D3589F46052BECD1614D2B788F
:1009D000022B62D0614C28706421200007F020FCBB
:1009E00020005F4907F0F0FB200007F025FCDAE764
:1009F000584B1B78012BD6D15A4A137000225A4B00
:100A00001A805A4B1A705A4A5A4B13CB13C21B689E
:100A1000052013600EF020F8C5E76946901C0622F9
:100A200007F0A2FC684654490EF078F8BBE7494D40
:100A30002B78012BB7D11000092107F05BFCF823BC
:100A4000A0225B010340D2009342ACD10307AAD598
:100A500002274A4E06223100A01C07F085FC3F4CBD
:100A6000404B200046491F7007F0DAFB2000454943
:100A700007F0AAFB200007F0DFFB434B300019789A
:100A8000394A2F7004F0ECFB8DE7324B1B78002BBA
:100A900000D088E7FFF7ECFE85E703209AE763794B
:100AA000002B00D07FE70122304B1A702D4B023211
:100AB0001A70364B1B68002B00D174E7344A5C680F
:100AC000106806232D4A3349A0476CE7274B1B7853
:100AD000002B00D167E70521200007F005FC011E6F
:100AE00000D160E7E379A12B00D05CE7E01DFFF7C0
:100AF00011FE58E7194807F0A7FB6379002B1DD0BA
:100B0000662BC7D1194B1B78002BC3D1EFF3108490
:100B100072B68021FF208901400318F0E1F884F3C8
:100B20001088B7E70D4807F08FFB0321200007F07E
:100B3000DBFB154B197804F06FFB34E702222A70B7
:100B40000A4A03212000137007F0CEFB064B1880E1
:100B500029E7C0467B4D0020A48D0110041C002015
:100B600021090010080600205A4D00207E4D00206B
:100B7000244B0020DC8D01109C8D0110584B00206F
:100B8000204E000011080010090600209C1B0020C8
:100B9000941B002044474F4870B512F085FB041E9B
:100BA0002DD10EF0E7FF80211648890004F00EFBDE
:100BB000154D280004F02AFB05200DF007FB00204E
:100BC0000DF0D8FF1148456009F0DAF801200DF06A
:100BD0000DFD0F4B0F4810491C7007F06DFB0022F4
:100BE0000E4B1C800E4B1A700E4A0F4B23CB23C2A8
:100BF0001B68012013600DF0F9FA200070BD01247C
:100C00006442FAE72445002085090010C43300201F
:100C10007B4D00209C1B0020941B00205A4D00207F
:100C20007E4D0020244B0020DC8D011010B54024A7
:100C3000084A83009A181268C0005440C02222401B
:100C4000054CA44663441A60044B9C4660444160D2
:100C500010BDC04604C0014004D001400040014026
:100C60000B4B80009C46604400290ED100230431C8
:100C7000002A00D11900802203685201594094468D
:100C80000C2360440B40036070470C210823EFE7FE
:100C900004C001408000002905D0064B9C46022379
:100CA000604403607047044B9C4602236044036029
:100CB000F8E7C04604E0014004F00140D0231B06E1
:100CC0001B6830B50500581E834110485C428446BD
:100CD00007203023284023408000EC08814020007A
:100CE0000B4D3C3063448000A40041511B19002A85
:100CF00005D08022920194466344196030BDC02221
:100D00009201944663441960F8E7C04600410140EF
:100D100000400140D023F0B5C64604001B069846AB
:100D20001B680C4F9B00F8580D00160000B50442DC
:100D300009D1044332002900FC500D2000F07AF95B
:100D400080BCB846F0BD01F027FA43461B689B0003
:100D5000F858EEE7504B002010B504000D2000F0CD
:100D60005DFAD0231B061B6802499B005A58A24318
:100D70005A5010BD504B00208000002905D0064B72
:100D80009C464023604403607047044B9C464023CC
:100D900060440360F8E7C04604E0014004F001400D
:100DA0000123D02283404021120693629361094AB5
:100DB00083009A181268C0005140C0220A400649B8
:100DC0008C4663441A60054B9C460523604443608F
:100DD0007047C04604C0014004D0014000400140BB
:100DE0000FB400B5084883B003F0A6FB049B002BAA
:100DF00007D005A91800019103F0F0F9034803F0AA
:100E00009BFB012003F002FAEC8D0110E895011024
:100E1000EFF3108072B6034A1368002BFCD0BFF3C7
:100E20005F8F70472C0100D0BFF35F8F0022024B11
:100E30001A6080F3108870472C0100D070B5EFF372
:100E4000108C72B60D4D2B68002BFCD0BFF35F8F5A
:100E50000724CB08C618C05C01230C40A3401C002B
:100E60000440034207D103433370BFF35F8F2C600C
:100E70008CF3108870BD1000FFF7B2FF2C0100D07A
:100E8000F8B54746CE46884680B5EFF3108C72B66B
:100E9000214D2C68002CFCD0BFF35F8F9A422CD8D8
:100EA000D4080727055D061901241740BC402C42D1
:100EB0001FD007210127894609E0D408055D0619DE
:100EC0004C4639001440A1400C00294211D0013297
:100ED0009342F2D201204042BFF35F8F00220E4BBB
:100EE0001A608CF3108800280FDBC0BCB946B046EE
:100EF000F8BD2C4310003470EEE7BFF35F8F002382
:100F00002B608CF31088012040424346002BECD02C
:100F10000898FFF765FFC0462C0100D030B5EFF30D
:100F2000108C72B60A4C2368002BFCD0BFF35F8F85
:100F300007230122CD0819408A40435D934343555E
:100F4000BFF35F8F002323608CF3108830BDC04651
:100F50002C0100D0044A1078431CDBB2172B00D9B7
:100F6000102313707047C0460A0600200021044B6E
:100F7000044ABFF35F8F02C39342FAD17047C04661
:100F8000000100D0800100D0054B064A1360064ADC
:100F9000136053609360D360136153619361704732
:100FA0008080808000E400E004E400E01F2318401B
:100FB0001E3B8340002905D0C021044A49005350FC
:100FC00013607047802201498B50FAE700E100E08E
:100FD00001238340014A13607047C04600E200E0ED
:100FE00070B50D00EFF3108672B60F4A1368002B30
:100FF000FCD0BFF35F8F0D4B10309B6884001B59F2
:101000000B4A934203D09D4201D001F0C5F8074B33
:101010009B681D51BFF35F8FBFF35F8F0022024BB0
:101020001A6086F3108870BD240100D000ED00E046
:10103000C1010010F0B557464E46DE464546E0B5C4
:1010400085B0060002911700EFF3108B72B6674A65
:101050001368002BFCD0BFF35F8F0025644B5D57F6
:101060009A46002D00DAA4E06B00624C03935B19F2
:101070009B009846A146C1444B4652469B79103688
:1010800013705D4BB2009B68019299580B1B2F2B7C
:1010900034D95A4B994200D0A4E0039B584A9C464D
:1010A000584B6544AD006353434602336519E41859
:1010B000554B0121043B1B1B1B055B0D13436B8030
:1010C000524BEF71AB80FF23AB71029BAB604B4681
:1010D0000B431900484B019A9B689950BFF35F8FEF
:1010E000BFF35F8F0022414B1A608BF3108805B06D
:1010F000F0BCBB46B246A946A046F0BD01200A009E
:101100008243D379BB422FD845464E46130040490F
:101110001B1B5B415943090D3A4B63533A4B023554
:101120006519043B5B1B1B05354D5B0D2B43738021
:101130000426B446E0444444131F1B1B4C46A171D3
:1011400002991B05A16049465B0D2B43A380314BDF
:10115000E77101431360BDE75800C01880002018F4
:10116000C679BE422BD902000623D356002BF3DAF0
:10117000101D82462848804604267642B446E14443
:1011800050464E46361A3005400D824656461C489B
:10119000957106439680039A944665441D4AAD00B6
:1011A000641922604246A371029BA280E771A3608A
:1011B00090E700F0F1FF002553465D5754E7101DFE
:1011C000824690884005001584464046D4446646D1
:1011D00004302018301AE0260005400D3602304356
:1011E0008046C9E700F0D8FF57E7C046240100D089
:1011F0007F4D00200C06002000ED00E0C101001032
:1012000000E0FFFF00A1FFFF3C06002001BDFFFF43
:10121000AAAA00000148804701BD0000F0B5DE46E3
:1012200057464E464546E0B50C0083B0EFF31089B3
:1012300072B65F4A1368002BFCD0BFF35F8F5D4B23
:101240009A68030010339F00D5595B4A9046954237
:101250003DD0A5424ED0594EAA1B2F2A37D8584A06
:10126000934612689446012261469246824011409C
:101270001F221040524682409246019180225146E0
:1012800058468150BFF35F8FEFF305829346002AE3
:1012900032D101232A009A439068844208D17CE02D
:1012A0004B005B189B00F318986884422ED01A00FC
:1012B000062151560029F3DA84424DD0019B002BC0
:1012C0001FD0C02251463E4B520099501960394BF5
:1012D0009B68DD51BFF35F8FBFF35F8F0022344BFC
:1012E0001A6089F3108803B0F0BCBB46B246A94629
:1012F000A046F0BD1500EAE79342CAD000F04CFFCB
:10130000C7E7802351462E4AD150E0E706215956BF
:10131000002922DB4A005018800034188046A0685B
:101320009860E079D871062020569871002825DB56
:10133000A488F01A6405241544440019E02400052B
:10134000400D24022043988052181E4B9200B6187C
:101350001A781970B271B1E71300594600290FD1FC
:10136000FF3191711849918016490A789A71174A8C
:101370009B1B5B415A43120D0A709FE71448E2E73A
:10138000144A1549D21A083A5002400D0143998077
:10139000124952080A43DA8090E706215156130099
:1013A0000029B7DA5A46002AEAD14546DCE7C046AA
:1013B000240100D000ED00E0C10100100C06002067
:1013C00000E100E07F4D002001BDFFFFAAAA000060
:1013D00001BD00004606002000F0FFFF00F8FFFFFF
:1013E00010B58308040003202040FF24054AC000F4
:1013F0009446844081409B0063441A68A2430A4398
:101400001A6010BD00E400E070B501240443EFF35E
:101410000581EFF3108C72B6214A1368002BFCD0C3
:10142000BFF35F8F1F4B05001F4AED1A6D416A43E2
:10143000120D1E4D8900AE6852B27658A6421CD0DD
:101440000621595691421CD012215956914222D060
:101450001E215956914220D02A21595603249142E7
:1014600010D0134B19781A708171BFF35F8F00226F
:101470000B4B1A608CF3108870BDAB680D4C5C5040
:10148000EFE700246100091989005B18FF219971B9
:1014900009499980E5E70124F4E70224F2E7C04610
:1014A000240100D00C060020AAAA000000ED00E0F4
:1014B0007F4D0020C101001001BDFFFF1F2110B5AD
:1014C000091A0248FFF72AFD10BDC0468A4D0020C8
:1014D00000B5074B83B001000093002205230548A7
:1014E000FFF7CEFC002801DB1F23181A03B000BD54
:1014F000FC8D01108A4D002070B504000E0015000F
:10150000FFF728FD0100200000F006F8A680E58026
:10151000BFF35F8F70BDC046024B9C46614489009B
:101520000160704740000034F8B5134D134E2C0095
:10153000FF27B5421ED22368002B0FD0FFF70AFD0C
:1015400001002800FFF7E8FFA780BFF35F8F083492
:10155000B4420FD223682500002BEFD1FFF7FAFC2D
:1015600001002800FFF7D8FF2771BFF35F8F083411
:10157000B442EFD3F8BDC046200F0020280F002052
:1015800010B50400FFF7E6FC01002000FFF7C4FFE0
:10159000FF23A380BFF35F8F10BDC0460A4B1968BD
:1015A000EFF3108072B60A68002AFCD0BFF35F8F99
:1015B0001B68BFF35F8F00221A6080F3108840BF62
:1015C000002000217047C0463C4D0020F0B5DE46AB
:1015D00057464E464546E0B585B0EFF305820323F6
:1015E00013409A0011000392B64A525890460122C5
:1015F0009A409146B44B1A604B46B4484363434605
:1016000008229B5E9A46002B3DDA43469B881BB21C
:10161000002B00DBA1E043469B79002B00D0F3E0D8
:10162000434608241C5F002C23DB424652696300BA
:1016300094461B19DB0063449C68DD68631C00D181
:101640000FE1A248039984466144826A0B69A61A95
:101650009B1A9E4215D34A46036A1A4211D09B48F0
:1016600000F0AEFB241A8D41002D02DCC4D1002C09
:10167000C2D040BF05B0F0BCBB46B246A946A046AA
:10168000F0BD0C61EBE7424652695B009346534460
:10169000DB009B445B469E68DF6800F091FB801B8B
:1016A000B9410029B1DB002F00DAE5E05B46884A4A
:1016B0001B69934200D1D8E041465A460820085E93
:1016C0005288000410435A465169984704000D009F
:1016D00023002B4300D1CFE0002D00DBE8E0361BD8
:1016E000AF4134003D005B469C60DD600021595EE7
:1016F000002900DA89E743465B6922009C462B00FB
:1017000048004018C00060448668C768921BBB410F
:10171000002B00DA79E74346664602000094019503
:1017200019810CE07B00DB19DB00F31800980199AC
:101730009C68DD68001BA941002904DB1A00002316
:10174000D75E002FEEDA5B461F8053461380434678
:101750009B881BB2002B00DA5DE743461A69EFF362
:10176000108172B61368002BFCD0BFF35F8F434625
:101770009B8842461BB29A4601235B4293801369C1
:10178000BFF35F8F00221A6081F310885346002B4D
:1017900000DA40E743465B699C46082343449B4686
:1017A00053465F0043465744FF0008229A5E674451
:1017B0005E46BC68FD68002A19DB3B000094019579
:1017C00067469C4604E01E000023F25E002A0BDB05
:1017D0000098019953009B18DB00FB189C68DD689A
:1017E000001BA9410029EEDA6346BC461F005346A0
:1017F000338000217B5E3A809A46002BD0DA434644
:101800009B79002B00D10BE700234246937143469E
:1018100046460821595E08364B1C00D129E7474649
:101820008C46556902E006004B1C17D04B005B1834
:10183000DB00E8180A00E95E43881BB2002BF2DAED
:1018400001235B42DC178360C4606245ECD03180C9
:101850003B89944603803A814B1CE7D1B8466446E5
:10186000E1E66B1C00D0ECE6F9E65B465C69200023
:1018700023699847002821D15B4642461B88138183
:101880001269EFF3108372B611680029FCD0BFF320
:101890005F8F4246594652880A80424651465180DF
:1018A0001269BFF35F8F0021116083F31088ACE6EB
:1018B000064800F085FA24184D4114E7656824684D
:1018C00006E7C046404B00203C7005400040054004
:1018D000CD15001070B52E4C2569002D04D00A21BD
:1018E0002C48FFF719FE70BD2B4E0321300000F08D
:1018F0005DFAE660FFF72EFB284B03229C46D023BF
:1019000022701B061B6801216370254B6044A36095
:101910000F23800020610220638063694942A18017
:1019200019800231198647311D83585218315A5295
:1019300075325C399952183201319952183201319D
:101940009952183201319952083518329D5202319C
:101950001832995218320131995218320131995284
:10196000183201319952183201319952183201312D
:1019700099520C4B0C49DC6001303562FFF730FBAB
:1019800001210320FFF712FB084B1D60A7E7C046AB
:10199000540600203C4D002000400540400000342B
:1019A000FFFF1000404B0020CD15001038600540AF
:1019B0000048704754060020F8B51F0008AB1B789C
:1019C00004001600002B07D100F002FA32003B00A1
:1019D000121A8B41002B4CDB2269EFF3108072B698
:1019E0001368002BFCD0BFF35F8F62690223E15EB6
:1019F00094464B005B18DB006344002901DB1A8826
:101A000062802269BFF35F8F0025156080F3108824
:101A1000002930DB069A9E60DF601A61079A5A61DE
:101A20005A8801325204520C161C002A1FD0B0B240
:101A30000A045E8010432669EFF3108572B632689F
:101A4000002AFCD0BFF35F8FA2881A80A18023698F
:101A5000BFF35F8F00221A6085F31088074923784F
:101A60008C4601329A40E36863441A60F8BD01264F
:101A7000DDE70020FAE701204042F7E73C200000C4
:101A800070B5C646010000B50469EFF3108C72B65C
:101A900020680028FCD0BFF35F8F02200D5E4869EC
:101AA0006C0080466419E4004444002D01DB20886A
:101AB00048800869BFF35F8F002606608CF31088AA
:101AC000002D30DBE36063880598013320615B04FF
:101AD00006985B0CA26060611A1C002B21D090B2AA
:101AE0002B04628018430A69EFF3108672B61368FC
:101AF000002BFCD0BFF35F8F8B8823808D800B6918
:101B0000BFF35F8F00221A6086F310880B780132D2
:101B10009A40CB6805498C4663441A6040BCB04685
:101B200070BD0122DBE701204042F7E73C200000C6
:101B300010B543890A14934233DD53009B18426960
:101B4000DB00944604696344EFF3108C72B622689C
:101B5000002AFCD0BFF35F8F5A88090494B2090CA5
:101B60008A4208D00369BFF35F8F00221A608CF3AA
:101B70001088002010BD8022120214435C800123D3
:101B800002698371BFF35F8F002111608CF31088AD
:101B9000054902788C469340C26801206244136074
:101BA000E8E70020E6E7C0463C200000F0B504006E
:101BB0000D0006267642F717C64636196F4100B566
:101BC00082B08F4214D811D000F002F932003B00ED
:101BD000121A8B41002B15DC002B44D02000290069
:101BE00000F000F902B080BCB846F0BD8642EBD9E7
:101BF0000026002700F0ECF832003B00121A8B415F
:101C0000002BE9DD00F0E4F832003B00121A8B41B2
:101C1000002B0ADB00230193144B3200009314487D
:101C20003B00FFF72DFF0028D8DBB0460026BC465E
:101C3000104A114F7B6A9C4504D8B96A8845CDD9B2
:101C40009C45CBD11168EFF3108072B60B68002B66
:101C5000FCD0BFF35F8F1368BFF35F8F1E6080F30C
:101C6000108820BFE6E7002AB8D0CBE79D1500100A
:101C7000540600203C4D00200040054070B5060091
:101C800000F0A6F8FA2204000D0000233000002125
:101C9000920000F061FF00196941002902DBFFF7A3
:101CA00085FF70BD012001494042F8E7FFFFFF7F3B
:101CB000F0B5CE46474680B504000D0083B0EFF383
:101CC0000587002F0DD0364A0020536A8B4203D37C
:101CD000926A0130A24250D303B0C0BCB946B046AC
:101CE000F0BD304B9846DB689946434648461E781F
:101CF00000F066F80B00494602000436B600715841
:101D000020008E1A2900801A99418F4211DC0ED0D2
:101D100020BF234A0020536AAB42DDD3926A0130D0
:101D2000A242D9D2E81A421E9041C0B2D4E78642FC
:101D3000EED900F04DF822002B00121A8B41002B37
:101D400020DB00230193184B2200009340462B0018
:101D5000FFF796FE011E15DD114B2E005A6A9542C3
:101D60001CD89B6AA34217D34046FFF7E1FE0C4AFA
:101D70000020536A9E42AFD8D0E7581A421E9041C5
:101D8000C0B2A9E7064A0020536AAB42A4D3926AC4
:101D90000120A242A0D2C5E79542E5D120BFE3E7EA
:101DA00000400540540600209D15001010B5024A61
:101DB0000248FFF743F810BD208E0110D41B00200D
:101DC0000300416A0A00986A596A8A42FAD1704748
:101DD000034B596A0A00986A596A9142FAD17047CE
:101DE00000400540064A536A9942FCD807D1044B8B
:101DF00002E05A6A914202D19A6A8242F9D370474C
:101E000000400540F8B5DE464E4657464546E0B52B
:101E10008B4605000A991800160000F021FB0A9B6A
:101E20006C001F02324B64199C46A4006444636832
:101E300081469F4200D967602B1FDBB29846012B79
:101E400030D9C02380229B01E31812011A60294B6C
:101E5000AD0059599A4600291BD12268760172407B
:101E6000E0268023164042465B01E3181E60012AEB
:101E700030D9802380229B01E31812011A60534657
:101E80004A4667605A51F0BCBB46B246A946A046D6
:101E9000F8BD586900F0E4FA431C5800C018033834
:101EA000FDD2DAE75B46012BCBD1C02303229B0195
:101EB000E3181A60023AA3681A42FCD0E0232268B1
:101EC000760156401E4080230A4A5B019246E31881
:101ED0001E60AD005A462168514003220A401A6034
:101EE00001225B469A40A3681A42FCD0C1E7C04673
:101EF00000800040DC1B0020F0B546464F46D64629
:101F0000C0B51F00344B44009C462418A400644410
:101F1000636888461600FF2B02D880235B0063604D
:101F2000031FDBB29A46012B30D9C02380229B01CC
:101F3000E31812011A60294B850059599946002966
:101F40001BD1226876017240E0268023164052465B
:101F50005B01E3181E60012A30D9802380229B0197
:101F6000E31812011A6080235B0063604B465F51E7
:101F7000E0BCBA46B146A846F0BD586900F070FA18
:101F8000431C5800C0180338FDD2DAE74346012B42
:101F9000CBD1C02303229B01E3181A60023AA36845
:101FA0001A42FCD0E0232268760156401E4080236E
:101FB0000A4A5B019146E3181E608500424621688B
:101FC000514003220A401A60012342469340A2680E
:101FD0001342FCD0C1E7C04600800040DC1B00205B
:101FE000014B8000C0587047DC1B0020F8B504008E
:101FF00020481D0017000E0000F032FA01003800E2
:1020000000F02EFA069B29041B0319432368002BBA
:102010001EDB194B194DE21853425A4180235B01D4
:102020009C461203164B62441A60164B1A60170046
:102030002B689F43FBD1144B2660E2182123A0603C
:1020400013602368002BFCDA0823E1601360F8BDFD
:102050003F2322681340B342DBD1A3681B051B0D4D
:102060008342D6D1EE22E368D20213408B42D0D114
:10207000EDE7C046001BB7000040FDBF08C00040B0
:1020800000E0004000F00040043000008023024ADD
:102090009B000B43D362704700800540142310B5AA
:1020A0000100188804331B88984710BD162310B50B
:1020B0000100188802331B88984710BDF8B54746C1
:1020C000CE4680B50F1E19D0142399460433040060
:1020D0000025012698464B461888434621681B88F0
:1020E000984701C4431E9841013540420640AF4223
:1020F000F1D13000C0BCB946B046F8BD0126F8E7C2
:1021000001207047D0231B061B68EFF3108172B6C5
:10211000024A9B00002099507047C0469C4700200F
:10212000D0231B061B68034A9B009B5883F310882F
:10213000002070479C470020004870476C06002034
:10214000F8B506000F001500FFF7F6FF041E0AD0D1
:10215000280063689847002804D13800B047280059
:10216000A3689847F8BD04204042FBE7AA23064A2B
:102170001B0113608D235B00D3600449044B19607D
:102180005368002BFCDA70470040024000B0FA00B0
:10219000006002407047C04610B50148FEF720FEBF
:1021A000448E011070B5074D074EB54209D2002488
:1021B000013E761BB60808CD984723000134B34290
:1021C000F9D170BD208D01105C8D0110054B064AC0
:1021D00006491A60064A074B1A6010000B689843BC
:1021E000FBD1704700E00040BFCDFBFE08C00040BF
:1021F000FE7F3C0000F00040044BDB6C002B03D161
:102200008022034BD2021A607047C0460000115072
:102210004C201150044A054B1A60054A1368DB0133
:102220008033FBD17047C046FFFFFF0100F0004044
:1022300008C000404022034B9A675A671A67DA6663
:102240007047C04600F0014010B5FEF78FFE10BD8C
:10225000F8B52D492D4C2E4D641AA6103200302EA3
:1022600000D930222800920000F0E8FCBC2C41D8B4
:102270000123711C08009C46264A30293DD92F278E
:102280002C196407E30FBF1B052F19D9302917D864
:10229000002B36D0B1006A506146CC1AF3189B006F
:1022A0006108EB18C900C9181A605A6008338B42DC
:1022B000FAD101232100994346188C421AD0711C8F
:1022C000B300EA50302915D089006A50B31C2E2E75
:1022D00010D09B00EA50F31C2D2E0BD09B00EA502F
:1022E000331D2C2E06D09B00EA50731D2B2E01D0DF
:1022F0009B00EA50084B9D60F8BD2F339B1B9C460A
:10230000BDE73000C8E7C04600010010C001001062
:1023100000000020C101001000ED00E0002310B516
:10232000294C82B0A367FFF721FF0122274B1A60D7
:10233000636C012BFCD10322254B1A60224A936B5C
:10234000012BFCD1013300930121224A224804339E
:10235000FFF74CFE052301210093204A2048FFF798
:1023600045FE0022022104201E4BFFF7C5FD00227E
:10237000012105201C4BFFF7BFFD00220021072093
:102380001A4BFFF7B9FD002200210820174BFFF779
:10239000B3FD8023DB000093002200210920134BB2
:1023A000FFF730FD0022104B00210620FFF7A4FDAF
:1023B0000420FFF715FE0E4900F052F8010000203E
:1023C000FFF764FE02B010BD008000403CB000404A
:1023D00030B00040002F685900800240008C8647D2
:1023E00000C00240001BB70040597307006CDC02BC
:1023F00040420F0001480421014B1847800600208D
:10240000BD200010014B9B6818470000800600208B
:10241000124A936F9B0815D29066D166002905D0A9
:10242000FFE7FFE7FFE7516F106F704704B58021AA
:102430000906C2175140002800D0C84316F040FCDE
:10244000002104BDF0B5146E556E576F166FFFF77F
:10245000E3FF1466556657671667F0BD000000D0AD
:10246000114A936F9B0813D210665166002905D05C
:10247000FFE7FFE7FFE7516F106F704704B50028D3
:1024800001D00020C04316F01BFC002104BDC04653
:10249000F0B5146E556E576F166FFFF7E5FF1466B3
:1024A000556657671667F0BD000000D094464A4A4B
:1024B000926F9208624601D228E0C046F0B5464EBF
:1024C000346E756E776F366F00F020F89446424A8E
:1024D00014665566576716676246F0BD94463E4AD5
:1024E000926F9208624601D254E0C046F0B53A4E6F
:1024F000346E756E776F366F00F04CF89446364A3E
:1025000014665566576716676246F0BD002B24DBDC
:1025100011D000293EDA00B5C943404200D1013153
:1025200000F038F8C943404200D10131DB43524248
:1025300000D1013300BD002AEBD1002801D10029D0
:1025400005D00020C90FC90701D1C043410800B51B
:1025500016F09EFB0022002300BD00B500290ADB17
:10256000DB43524200D1013300F014F8C94340422A
:1025700000D1013100BDC943404200D10131DB43EC
:10258000524200D1013300F005F8DB43524200D142
:10259000013300BD002923D1002B18D1002A0CD013
:1025A000BC460D4F38667A6600210023FFE7FFE73F
:1025B000FFE77A6F386F67467047002801D00748F9
:1025C000010000B516F064FB0022002300BD0200EC
:1025D0000B00002000217047000000D0FFFFFFFF2C
:1025E000002B00D0BFE0130C28D1002AE7D080B424
:1025F000114F39667A66FFE7FFE730B4040C7B6F52
:10260000396F1B0423433B667A66FFE7FFE7FFE76A
:10261000C04684B27B6F3D6F1B0423433B667A66E2
:10262000FFE7FFE7C04600232C042D0C7A6F386FBC
:1026300000196941B0BC7047000000D0F0B5944665
:102640000025140E01D112020835140F01D1120118
:102650000435940F01D192000235D40F01D15200FC
:102660000135D40B0134254F7C66254C3C660E0C9D
:1026700093B2FFE7FFE7FFE73C6F6643360C770353
:10268000BE467343DF0B5B04C01AB941130C73439E
:10269000DB18C91ACE086643360CB64493B27343AE
:1026A0001F0F1B01C01AB941130C73431F0B1B05ED
:1026B000C01AB941860D8F023E436643360C092D80
:1026C00024DB520A7243801A7703460A6643360CAB
:1026D00016235B1BDE40DF40BF1964466643821B46
:1026E0007046043506330100D940A840C01900D314
:1026F0000131A24206D20023F0BD0000000000D04C
:10270000FFFFFFFF121B0130F3D3F1E709277F1B07
:10271000FE406446A2B27243801A00D20139220CF4
:102720007243130C1204821A99410B00704604354F
:1027300013370100F940A840801900D30131002B64
:1027400002D1A2420AD2F0BD013000D30131121BE6
:10275000FAD2013BF8D1A24200D2F0BD013000D341
:102760000131121BF7E7F0B51C0C00D080E00CB46F
:1027700000251C0A04D11B02160E33431202083531
:102780001C0B04D11B01160F3343120104359C0BA3
:1027900004D19B00960F334392000235DC0B02D12B
:1027A00092185B4101351C00971864410134464F73
:1027B0007C66464C3C660E0CFFE7FFE7FFE7C04631
:1027C0003C6F6643360C7703BE4697B27743C01B17
:1027D00000D20139C01B00D201399FB27743C91B17
:1027E000C91B170C77437E04FF0B801BB941CE0831
:1027F0006643360C0C2D33DBB644120B1F053A43EF
:102800001B0B97B27743C01B00D201399FB27743AD
:10281000C91B170C77433E043F0C801BB941860D42
:102820008F023E43664329277F1BFE400C3D7746BF
:10283000AF40BF1930BCA2B2ABB272437343801A2F
:102840009941220C7243130C1204801A9941020020
:102850000B000137001BA941F9D2781E0021F0BD01
:102860000C277F1BFE4077467F0BAF40FF19E0E748
:1028700000245D1C07D0144F7D663966FFE7FFE733
:10288000FFE7FFE73C6F95B29EB265436643401B8E
:10289000B141150C1E0C6543664336042F0C3E43B4
:1028A0002D04401BB141994204D202000B002000CC
:1028B0000021F0BD01D19042F7D3801A9941013433
:1028C0009942F2D3F6E70000000000D0FFFFFFFFBF
:1028D00048404140484018B4134B5B68019308BD21
:1028E00018B4114B1B68019308BD94460F4A926FB0
:1028F000920805D2624618B40B4BDB68019308BD01
:102900000A4AF0B5146E556E576F166F6246FFF7A0
:10291000F2FF064A1466556657671667F0BD18B48D
:10292000014B9B68019308BD08110020000000D0F6
:10293000FFB550404240504059404B40594000E0A4
:10294000FFB5154F4C00640D03D0BC4204D10C03FD
:1029500014D80020090D09055C00640D03D0BC42A9
:1029600004D11C030AD800221B0D1B0501264B4075
:1029700009D44B4003D58B4200D18242FFBD99421E
:10298000FCD19042FFBD0B43DB1803431343F5D04A
:10299000C9434918FFBD0000FF07000000B5FFF75D
:1029A000CFFF804100BDC04600B5FFF7C9FF01D988
:1029B000002000BD012000BD00B5FFF7B9FF01D91F
:1029C000002000BD012000BD00B5FFF7B1FF804130
:1029D00000BD012040054A00121804D85A00121800
:1029E00001D8002070470120704700000021002816
:1029F00005D17047C1174840401AFAD0C90713B52E
:102A0000064B1B6898470CBC441CA2401005120BD7
:102A10000349091B09051943114310BD304C00201F
:102A20001F04000010B54C00620D8023D218DB009B
:102A3000D21A5B057E2A10DD9E3A13DACC17090301
:102A4000490819435242D140640001341532202A0A
:102A500005DAD0400843604310BD002010BD084691
:102A6000604310BDC80FC018013810BD18B4024B28
:102A70005B6A019308BD00000811002010B50148F1
:102A8000FEF7AEF9508E0110132370B51D78012D9D
:102A900015D039DD1E48FFF709FB06001D48FFF77A
:102AA00005FB1D4C80223100200000F0C7F8022DEC
:102AB00027D01A48FFF7F2FA194B186070BD194B6E
:102AC000154C23606360A360E36023616361A361CD
:102AD000E36123626362A362E36223636363A363CC
:102AE000E36323646364A364E36423656365A365AC
:102AF000E36523666366A366E36623676367A3678C
:102B0000E367094BA364D4E7034C074BA364D0E706
:102B10005344000053460000081100204C330000CD
:102B2000304C00207D2A00102D2B001007B5604688
:102B300001880A0A0230DF2AFAD1C9B2820804D316
:102B4000028840880004104300E00068014A5050A9
:102B5000039007BD0811002051434343C9188C4618
:102B6000110C83B24B4310B4040C614392B280B297
:102B7000504362431C041B0C001910BC5941130440
:102B8000120CC018514161447047000010B5014853
:102B9000FEF726F908880510132310B510481C7895
:102BA000FFF784FA0100012C0AD003DD80220D48D2
:102BB00000F044F80C48FFF771FA0C4B186010BD98
:102BC000084C5422200000F039F82300084A8033D2
:102BD0002168002900D122600434A342F8D1E9E73A
:102BE00053460000344C00204C330000304C002091
:102BF0008D2B001010B5040015F022FB002804D026
:102C0000034B04199C4200D810BD0248FEF7E8F8B7
:102C100000000420688E011010B515F01BFB10BDDC
:102C200001480421014B184790060020BD200010E8
:102C3000014B1B681847000090060020014B5B68A1
:102C400018470000900600207047C046F8B5574668
:102C50004E464546DE46E0B599460A9B07009A4631
:102C60000D9B8846934615000B9E9B0710D10C9B2D
:102C70009E420DD29D1B14000E005D4422004B4667
:102C8000013431002020B847A542F7D1B0460B9E51
:102C9000002E27D0444675195346AA1B013E985D65
:102CA00021004B46B847002EF6D123002C00984651
:102CB0000D9B9B070FD55B46E51A0C9BAB420AD9CF
:102CC0004646984622004B46310020200135B84741
:102CD0000134A845F6D82000F0BCBB46B246A94650
:102CE000A046F8BD2C00E3E7F0B54F464646D64671
:102CF000C0B584B098460EAB1B78129F9946944697
:102D00000D9C109B119EBA0725D4002E4BD19C42DE
:102D100000D3BFE001223A4092461F2C00D9B8E010
:102D20000C9A551E302201E0202C03D001342A5584
:102D3000A342F9D85246002A0DD0A6420BD9202C26
:102D400044D00C9A551E302201E0202C3ED0013494
:102D50002A55B442F9D1FA064DD57A053FD4002C54
:102D600039D10F9B102B00D179E00F9B022B00D1A2
:102D70008AE030230C9A012413704B46002B3FD07D
:102D80002D230C9A135501340C9B62460093039734
:102D9000434602960194FFF759FF04B0E0BCBA46DF
:102DA000B146A846F0BD012215003D40AA463A4270
:102DB0002FD04A46002A02D10C323A4200D0013EBE
:102DC0009C42BAD21F2CABD9202E27D92024FA0638
:102DD000DAD57A0503D4A3422DD0A6422BD00F9B7F
:102DE000102B32D0022B20D0202CCDD030220C9BA7
:102DF0001B191A700134202CC6D04B46002BBFD1B2
:102E00007B070DD43B07BFD520230C9A1355013403
:102E1000BAE79C429FD21F2C00D881E720249AE772
:102E20002B230C9A13550134AEE7202CACD00C9B0D
:102E30001B1901343AE0631E012C92D00F9A102A1C
:102E40002AD0022A2FD01C00D0E7BB060ED4202C9B
:102E50009AD00C9B1A19013478231370C4E7BB066F
:102E60000DD478230C9A01241370BFE7202C00D1D5
:102E70008AE758220C9B1B191A700134B4E75823B7
:102E80000C9A01241370B1E70C9A6033012413707B
:102E9000ACE7202400265EE7023CBA06E9D40C9A8F
:102EA00012191C00D8E70C9A9246534462221A70F9
:102EB0009AE7C04610B5002800D110BD01F0F0FA25
:102EC000FBE7C0460B0010B5002802D049681B681C
:102ED000984710BDF0B5DE4657464E464546E0B52C
:102EE0009BB09B46249B89469846259B0B900C9251
:102EF0004046424619009A46FFF76BFD002800D075
:102F0000D8E0012240465146774B5242FFF75CFD24
:102F1000002800D0CEE0012240465146734B524279
:102F2000FFF73CFD002800D0C4E00022002340460B
:102F30005146FFF733FD002800D0B9E14246534621
:102F40000A9209938023289ADB001A400E92289A4D
:102F50001A4201D1062326930A9A099B16001343AD
:102F600000D0C7E0289B002500261B0500D49BE16C
:102F700000230D93269A0D9B9A4200DC9FE1D01A04
:102F8000431E26938023289ADB001A430023002740
:102F900028920D93279B0024BB4200D9DC1B0223FF
:102FA000289A1A400E92289A134203D07B427B4102
:102FB0005B421C400D9B002B07D00A9809992A0000
:102FC0003300FFF792FC0A9009910022002340464B
:102FD0005146FFF7E3FC002805D080200006844618
:102FE000099961440991289A414B0B9D1340049320
:102FF000269B0A9A0293099B0394009201934946E7
:103000005B4628000C9A00F08BF90400002F62D078
:10301000289B220098061F23C0179843631C9846DC
:1030200049465B466530A8470D9B0025DA179C187A
:10303000DB0F9A465440013F01E0202D13D00AAA2D
:1030400094461F23200063440A2101355E19FFF7CF
:1030500007FA3031317020000A21FFF701FA26000B
:103060000400092EE9D805230693002304930A33AC
:103070000393534605970B9F029312AB009342466E
:103080005B46494638000195FFF72EFE0E9B040073
:10309000002B20D00C9BC51A279BAB421BD91E00CE
:1030A00022005B46494620200135B8470134AE4234
:1030B000F6D810E0289B42460493279B4946039389
:1030C000269B0B9802935346009201935B460C9A01
:1030D00000F026F9040020001BB0F0BCBB46B2464D
:1030E000A946A046F0BDC046FFFFEF7FFFFFEFFF00
:1030F000FFF7FFFF734B099F9C467800400D60442B
:10310000FFF778FC704A714BFFF709FC704A714B6E
:10311000FFF7E6FB3B03704A1B0B1A4304000D004C
:10312000300011006D4B0022FFF7D5FB6C4A6D4B50
:10313000FFF7F5FB02000B0020002900FFF7D0FB92
:10314000FFF770FC0D90FFF755FC674A674B0400D2
:103150000D00FFF7E4FB0022654BFFF7C1FBFFF713
:1031600061FC644A0600644B20002900FFF7D7FB8E
:10317000040030000D000F96FFF73CFC5F4A604BE7
:10318000FFF7CDFB02000B0020002900FFF7A3FB97
:1031900002000B0006000F00FFF7C1FB3200040025
:1031A0000D003B0030003900FFF79AFB0022109021
:1031B0001191544B20002900FFF797FB0022524B3E
:1031C000FFF78EFB02000B0020002900FFF78DFBAC
:1031D00000224E4BFFF784FB02000B002000290069
:1031E000FFF783FB0D008021040032003B0000202C
:1031F000C905FFF770FB02000B0020002900FFF754
:103200006FFB02000B0010981199FFF76EFB002274
:10321000314BFFF765FB3E4B0F9C9C4664440022FC
:103220002305FFF77CFB05000E0002000B000A9847
:103230000999FFF7B3FB00280AD00D9B2800013B3A
:1032400031000D930022304BFFF74FFB05000E00BD
:10325000C6270D992B0063318F42BF4128997F42C9
:103260000437090500D495E6334300D182E6099C72
:10327000284A2100284B0A98FFF79EFB002808D017
:1032800000222100254B0A98FFF788FB002800D078
:1032900070E6269B002B00D17CE60E9B5A1E9341C4
:1032A000269AD31A269375E6002304270D9371E618
:1032B00043460A9380231B065344099342E60023A6
:1032C00026935FE601FCFFFFFB799F501344D33F39
:1032D000B3C8608B288AC63F0000F03F0000F83F6B
:1032E00061436F63A787D23F71A379094F930A4067
:1032F0000000E03F1655B5BBB16B0240EF39FAFE56
:10330000422EE63F00002C40000024400000184000
:10331000FF0300002D431CEBE2361A3F80842E4150
:10332000F0B54E46DE4657464546E0B597B099465D
:10333000209E219F229B8346984607910C923B003A
:10334000320030003900FFF744FB002800D0A9E12B
:10335000012230003900CA4B5242FFF71FFB002800
:1033600000D0E1E0012230003900C64B5242FFF7A5
:103370002BFB002800D0B7E0002230003900C24B00
:10338000FFF722FB002800D099E00022300039002E
:10339000BE4BFFF703FB002800D090E00022002383
:1033A00030003900FFF7FAFA002800D0B1E000231E
:1033B0000D93249B5B0501D40623984608AB9C46DD
:1033C0001722002430234146624404E0013413559F
:1033D0000139202C01D00929F8D88846300039005D
:1033E000FFF720FB4346DA00A94B05009B181A683B
:1033F0005B6808920993FFF7FDFA02000B003000AA
:103400003900FFF768FA089A099BFFF788FA0A90D3
:103410000B91FFF72BFB8246FFF7E8FA02000B0047
:103420000A980B99FFF757FA00229A4B0A900B91D2
:10343000FFF7CAFA002800D1C0E001239C46E2440D
:103440005046FFF7D3FA02000B0008980999FFF7DE
:10345000ABFA002802D000239A4601354346002BE0
:103460006AD008AB17269C4608956644554614E07A
:1034700001235B4243440A2128009A46FEF7F0FFED
:10348000013430313719397028000A21FEF7E8FF7E
:10349000092D00D8D0E0D0460500202CE8D10EAB95
:1034A00098460323249A1340012B00D196E0202351
:1034B000249A01930392239A434602921EE0249B8E
:1034C00058460493239B00960197039343460C9A16
:1034D000029307994B46FFF7FDFC17B0F0BCBB46C3
:1034E000B246A946A046F0BD249B5B070ED403223A
:1034F000694B2499019203912399029100935846B4
:103500004B460C9A0799FFF7A1FBE6E70422634BB1
:10351000EFE73B00320000200021FFF7DCF9012338
:1035200006000F000D9344E7249B0393239B029313
:10353000042301935A4BE1E72800FFF75BFA0200EE
:103540000B0030003900FFF7C6F9524B002206008D
:103550000F00FFF723FA0EAB984600280AD100228D
:10356000300039004B4BFFF72FFA002802D1EB0750
:1035700000D50135202C94D008AA944617232800A2
:1035800063440A2101341E19FEF742FF303128003E
:1035900031700A21FEF73CFF051EEBD10323249A6C
:1035A0001340012B1BD0202C00D180E70D9B002B5A
:1035B00035D02D224146631C0A5579E700220A982E
:1035C0000B99344BFFF7EAF9002800D046E7534641
:1035D000002B51D101239C46E2443FE72024239B4A
:1035E000002BE0D00D9B002B03D1249A0C33134207
:1035F00002D0239B013B2393239BA342D3D908AB47
:103600009C46172230236244202C00D14FE7239997
:10361000013413558C42C6D0202CF8D147E7249BA7
:103620005B0724D4249A2300120700D440E7202209
:10363000414601330A553BE75746089D202C00D1EF
:103640002DE7220030214046002F09D00132B1542D
:10365000202A00D123E7D3431B191B18002BF5D1D7
:103660000EAB98462E234146541C8B5482E72B22E6
:103670004146631C0A551BE7DB0700D4EEE6A9E7C9
:10368000FFFFEFFFFFFFEF7F65CDCD4165CDCDC1E2
:10369000489101100000E03F508F0110548F01103D
:1036A000608F0110249B0393239B029303230193B8
:1036B000004B23E75C8F0110F0B5DE464E465746BF
:1036C0004546E0B59FB01C00289B91460993C94A26
:1036D000C94B8B4608901A60002900D118E20023DC
:1036E00020789A46002800D11AE226001D005C4688
:1036F0000AE02A006F1C4B46089D2100A8473D00A8
:1037000001363078002870D02528F2D110239B464E
:10371000083B9A46043B9846023B00219C46721C9B
:10372000107816000300203BDBB2102B03D8B34FF8
:103730009B00FB589F460300303B092B32D90023E6
:103740000A932A2868D0002398462E283ED00300EA
:10375000683BDBB2122B1CD8A94A9B00D3589F466A
:10376000012301321943DBE7634601321943D7E7EE
:10377000434601321943D3E75B4601321943CFE791
:10378000534601321943CBE780235B00707819431D
:1037900001360300253BDBB2532BAAD8994A9B0084
:1037A000D3589F4600270300B800C01901364000D7
:1037B000C018337830381A00303A0700092AF3D994
:1037C0000A901800002398462E28C0D180237078D4
:1037D000DB0019430300303B721C092B00D8A1E128
:1037E0002A2800D1B2E11600B1E7A346AA462C0070
:1037F000D14503D801235B424B449A464B4652467F
:1038000059460020089DA84720001FB0F0BCBB46C9
:10381000B246A946A046F0BD099B40CB0A96002EB1
:1038200003DB50780993561C8DE72838014370421A
:103830000A9009935078561C85E7782800D1DFE17B
:10384000582800D14CE26F2800D14FE3622801D103
:1038500000F030FC10230A009A430B92692801D033
:1038600000F0A9FC0A230C934B0500D5D0E10B9A7C
:10387000802311009B0019408B461A4200D0A1E220
:10388000802311005B0019408A461A4200D0B6E33B
:1038900013005B0600D5EDE2130009991B0601D465
:1038A00000F076FC08C91BB2D8171A18424092B231
:1038B00009919346DA0F1292002B09D1802310222E
:1038C0000B99DB000B4091430B91002B00D0E4E2FD
:1038D0000B9A6123920600D541230EA91F228C4624
:1038E000DBB262440A3B5F461395A34655460C9CE7
:1038F000B2460D9316000AE03033DBB20135735542
:10390000A74200D2EDE2202D00D1EAE2070021001B
:103910003800FEF7A5FDCBB20929EDD90D9A9446E2
:103920006344DBB2EAE780239B00707819430136D9
:103930002FE77078682800D1CDE180230136194344
:1039400027E770786C2800D1BFE180235B00194322
:1039500001361EE7462800D19BE10722099B04910E
:10396000073393430A9A19000392424602920CC904
:1039700008980092019309912A004B462100FFF715
:10398000CFFC01360500BCE62A006F1C4B46089DA3
:1039900021002520A84701363D00B2E68B0700D460
:1039A000ADE1099B2A009A466B1C9846534601CB11
:1039B00021009A46089F4B46C0B2B8470A9B9C46D6
:1039C0006544012B00D886E2089B4746B046260096
:1039D0004C4699463A002300013731002020C84761
:1039E000AF42F7D1A146534634004646099301360B
:1039F00087E6C046B9360010344B0020688F0110AE
:103A0000AC8F0110F88F0110099B04CB9B464346F5
:103A10000992002B00D1C6E013789C46002B00D100
:103A2000BDE34346013B099A0133D0180A9F1300B6
:103A300001E0834203D05A780133002AF9D1099A70
:103A40000A979B1A0B9380230A00DB001A400C9202
:103A5000194204D00B9B434501D943460B930223E3
:103A60001A000A400D920B4200D187E160460028FF
:103A700000D168E10C9B002B00D10DE1A844C246A7
:103A8000099B57465B1B9846089BB2462A002600B6
:103A90004C46994609E023003100551CC84743466F
:103AA000585D002800D126E12A009742F3D1A146B3
:103AB0003D00340056460D9B002B00D043E15B4691
:103AC000013609931DE6099B1A0008CA9246002B8D
:103AD00048D0212211438B460EA884461F21614401
:103AE000099500220F27A4460D0002E0202A0CD0E1
:103AF0000B003C001C4020003730092C00D8073850
:103B00000132A85419090F2BF0D86446099D32E000
:103B1000DC4B2078089300239A46002800D0E4E587
:103B2000002465E6434606000A9F9800C01801324B
:103B3000400080191678030030003038303B0928E7
:103B4000F3D93000984616000A9700E6099B023622
:103B500004CB9046D2434046D2171040804609938A
:103B60003078F4E510220800904311321043834668
:103B700000224905B0D55B460693082305934346CA
:103B80000493102303930023029316AB0192009336
:103B90002A004B4621000898FFF7A6F85346050077
:103BA00001360993ADE513789C46002B00D1F7E26E
:103BB00002235B4237E7202302009A43472A04D1BD
:103BC00080231B01194302239843452801D1202358
:103BD00019430722099B0491073393430A9A19005A
:103BE0000392424602920CC90898009201930991EF
:103BF0002A004B462100FFF76DF90136050080E5EC
:103C000010230C930C230A009A430B924B0503D507
:103C100001230B9A9A430B92692800D127E6642866
:103C200000D124E60B9A802311009B0019408B469B
:103C30001A4200D066E1802311005B0019408A46D9
:103C40001A4200D039E213005B0600D53CE11300B4
:103C50001B0600D4A6E2099B04CB1204120C934667
:103C600009935B46002B00D09AE10B9A10331100A8
:103C700099430B91520500D492E100239A460B9B85
:103C800006930A9B0593434604930C9B03930023DE
:103C90000CE12023194360E6099B0A9A5B1B9846B6
:103CA0004B4691461F00B2462600089C2A003B0066
:103CB0003100A04743460135585D0028F6D14A46F9
:103CC0003400B94656460A92F5E6C0239B00B07808
:103CD000194302365DE5C023B0781943023658E532
:103CE0000C230A009A4314331A43103B0B920C9393
:103CF0004B058DD496E7A14634005646DBE60A9A7A
:103D0000012A00D853E26B1E9F18089BB04626007C
:103D10004C4699462A002300013531002020C8472F
:103D2000BD42F7D1A14634004646099B3A0001CB7B
:103D3000210098467D1C4B46089FC0B2B8474346B9
:103D400001360993DDE40B9B0A9AA8469A4200D8F3
:103D5000B5E694466544ED1A089B4746B0462600F2
:103D60004C4699463A002300013731002020C847CD
:103D7000AF42F7D1A14634004646A0E60B9A0A9915
:103D8000531C914200D814E24B199B1A1F00089B48
:103D9000B24626004C4699462A00230001353100E0
:103DA0002020C847BD42F7D10A9BA14601330B939F
:103DB000099B34001B7856469C466046002800D07C
:103DC00058E67CE60722099B073393430132944669
:103DD0009C4462465F6809921A68FB17109311931E
:103DE00010981199030053400E930B007B400F93E2
:103DF00094460E9A0F9B121A8B410E920F93FB0F53
:103E00006246129300233A439B463DD00B9A6123AE
:103E1000920600D541230022DBB20EA90A3B8C4654
:103E200092460D9343461F326244139515965546AC
:103E30000E9E0F9FA24690460C9C14930CE03032CD
:103E4000D2B2434601355A55BB4500D18AE1202DF7
:103E500000D18AE106000F00220000233000390063
:103E6000FEF73CFBD2B2092AE9D90D9B9C4662447D
:103E7000D2B2E6E7FF23099904C913401A00099159
:103E800017E5C046492C00100B9A103311009943D6
:103E90000B915205BAD500239A460B9B06930A9BB9
:103EA0000593434604930C9B0393129B0293534642
:103EB000019316AB2A00009321004B460898FEF7A9
:103EC00013FF013605001CE4FF22099B02CB1140C1
:103ED0008B460993C5E65346454609930136FFF7DD
:103EE00010FC56465C46AA46139DD6E708230C9361
:103EF0000B910B99642800D084E60B9B5B0500D5E1
:103F000086E6B4E40722099B0733934301329446C3
:103F10009C44624609921A685B6810009B46130035
:103F20005A46134307D10B9A1033110099430B9152
:103F3000520500D5A1E60B9A6123920600D54123D4
:103F40000022DBB20EA90A3B8C4692460D934346F3
:103F50001F3262445F461295A34655460400B2469E
:103F600090460C9E13930DE03032D2B24346013599
:103F70005A550023BB4200D100E1202D00D100E1C1
:103F800004000F003200002320003900FEF7A6FADB
:103F9000D2B2092AE8D90D9B9C466244D2B2E5E729
:103FA0000B9A6123920600D54123DBB20EA90A3B8E
:103FB0001F228C460D93230062445C461295170025
:103FC00055469B46B2460C9E08E03033DBB20135C5
:103FD0007B55B4420ED3202D0CD0040031002000BC
:103FE000FEF73EFACBB20929EFD90D9A9446634405
:103FF000DBB2ECE756465C46AA46129D3FE6099BBB
:104000001A0008CAD91713925A184A409246DA0F72
:104010001292002B08D1802310220B99DB000B4059
:1040200091430B91002B2BD10B9A6123920600D563
:1040300041230EAA1F279446DBB20A3B0D95674425
:104040005D460993A3465446B2460C9E08E03033C1
:10405000DBB201357B55B4420ED3202D0CD00400C9
:1040600031002000FEF7FCF9CBB20929EFD9099AFB
:1040700094466344DBB2ECE756465C46AB460D9D86
:104080000B9B2A0006930A9B210005934346049349
:104090000C9B08980393129B013602935B46019395
:1040A00016AB00934B46FEF71FFE139B05000993CA
:1040B000FFF727FB02230C931AE7099B04CB9246D8
:1040C0001293002A08D1802310220B99DB000B40A9
:1040D00091430B91002B2BD10B9A6123920600D5B3
:1040E00041230EAA1F279446DBB20A3B0D95674475
:1040F0005D460993A3465446B2460C9E08E0303311
:10410000DBB201357B55B4420ED3202D0CD0040018
:1041100031002000FEF7A4F9CBB20929EFD9099AA2
:1041200094466344DBB2ECE756465C46AB460D9DD5
:104130000B9B2A0006930A9B210005934346049398
:104140000C9B08980393002302935B46019316ABE4
:1041500000934B46FEF7C8FD129B050009930136FC
:10416000FFF7CFFAB44200D871E6149B54460E967E
:104170000F97AA469846159E139D8EE6A64200D834
:10418000FBE6139B56469846AA465C46129D76E58A
:1041900008C9D8171A1842400991FFF78AFB002373
:1041A0000B9350E4099B04CB9346099359E52F00E8
:1041B000BBE50B9301E6063B0C939AE600B585B090
:1041C0000391012102900093034813004A4202A97F
:1041D000FFF772FA05B000BDC52E001010B5094AF0
:1041E0000300146884B0002C08D001220091064816
:1041F000524203A9A047012004B010BD00F09CF971
:104200000020F9E7344B0020B52E001000BEFDE77A
:10421000094A03001068002805D00849C3188B42DA
:1042200007D81360704706480449C31810608B42D2
:10423000F7D901204042F5E7284200200000042081
:104240008C4D002010B5FFF7E1FFC04670B5FDF7BB
:10425000A9FF074D074EB54209D20024013E761B47
:10426000B60808CD984723000134B342F9D170BD98
:104270005C8D0110648D0110030010B50800110061
:104280001B68984710BDC046F0B546464F46D64617
:10429000C0B5437D80460E001700002B46D0002A93
:1042A0003FDD4B1E9946244B0125002400209A46F1
:1042B0000DE04B461B5D0D3B5A425341325DDBB274
:1042C0000A2A0BD02B00013401359F421ADD002C45
:1042D000EFD14346325D1B7D0A2AF3D1002BF1D189
:1042E000A04204DA4346211A1B6830189847434617
:1042F00050461B6802219847013428002B000135E5
:104300009F42E4DC874204DD4346391A1B683018BB
:104310009847F619013E33780D3B5A4253414246C5
:104320001375E0BCBA46B146A846F0BD036811005B
:1043300030009847F5E7C04698910110F0B5C646A1
:104340000C000968060000B5802906D04B1C2360CC
:104350006418267180BCB846F0BD0F4B1D68002D57
:1043600016D0231D98460D4F02E02D69002D0FD069
:104370002B68002BF9D03B68002B01D0AB42F4D165
:10438000280041462268FFF77FFF2D69002DEFD1FD
:1043900001230021DBE7C04610250020182500205E
:1043A000F0B5DE4657464E464546E0B585B01700A7
:1043B0001C0006000D00FDF70BFD0023314A12180A
:1043C0004B41002B59DB304908008A4614F090FC21
:1043D00001906B1C03D1300014F0A4FA0500002CEE
:1043E00026D12A4B98462A4B1C68002C15D0002F4A
:1043F00021D1284F02E02469002C0ED02368002B25
:10440000F9D03B68002B01D0A342F4D120002A0050
:104410003100C0472469002CF0D1019B002B28D12A
:10442000280005B0F0BCBB46B246A946A046F0BD88
:10443000194B9846D7E7174B994602ABDF1D0A2365
:104440009B4602E02469002CE7D02368002BF9D0BA
:104450004B461B68002B01D0A342F3D12A00310048
:104460002000C0475B460122390020003B70C04756
:10447000E8E7504614F004FCD2E70122074B524211
:10448000A1E7C04640420F00200F002079420010F3
:10449000102500201825002089420010FFFFFF7F13
:1044A000F0B5CE46474680B583B06B460600DD1DAD
:1044B0002870FDF78DFC00231A4A12184B41002B7F
:1044C0002BDB19490800884614F012FC174B814673
:1044D0001C68002C14D0164F02E02469002C0FD069
:1044E0002368002BF9D03B68002B01D0A342F4D104
:1044F000200001222900FFF7C7FE2469002CEFD11C
:104500004B46002B05D1300003B0C0BCB946B046C5
:10451000F0BD404614F0B4FBF5E70122054B5242D2
:10452000CFE7C04640420F00200F0020102500209A
:1045300018250020FFFFFF7F70B5040014F0F2F98A
:1045400001230100050001222000FFF729FF084B8D
:104550001C68002C06D06368002B05D0984724699E
:10456000002CF8D1280070BD2469002CF3D1F9E7A4
:1045700010250020F0B5CE46474680B5A5B0040012
:104580000D00FDF725FC00232A4A12184B41002B91
:1045900049DB294E300014F0ABFB002307000393E6
:1045A00022002B00254803A9FFF708FE039B804645
:1045B000002B14D1224B1C68002C06D06368002B02
:1045C0000BD098472469002CF8D1002F27D1404602
:1045D00025B0C0BCB946B046F0BD2469ECE7184B25
:1045E0001D689946002D22D0164C02E02D69002D41
:1045F00011D02B68002BF9D02368002B01D09D42ED
:10460000F4D1039B28001A0004A90193FFF73CFE94
:104610002D69002DEDD14B4603951C68CCE7300089
:1046200014F02EFBD3E70122074B5242B1E703956A
:10463000CBE7C04640420F00200F00203D43001052
:104640001025002018250020FFFFFF7F0FB400B5C4
:1046500083B004A901C90191FFF78CFF03B008BC26
:1046600004B0184701230121084A1360084A136067
:10467000084A080013689843FBD1074A116080215B
:10468000490013680B42FCD07047C04600E0004070
:1046900000F0004008C0004000C004407047C04621
:1046A0007047C0460023036001207047F0B54546BF
:1046B0005746DE464E46E0B58BB0019303680400D2
:1046C000DDB20F0090460F2D33D8FF2119401A4B51
:1046D0001A4E9B464D1CEBB299465B461943336814
:1046E00070681B6803AA9A461C23D04700281AD07A
:1046F000062204A93800FEF7A1FA02AB9C460E215F
:10470000102240466144FEF799FA4D46012002AB63
:10471000DB8B019A138025600BB0F0BCBB46B24620
:10472000A946A046F0BDEBB229000F2BD2D94D46C9
:10473000F1E70020EFE7C046004C5442344D002022
:10474000F0B5CE464746144B80B500250700994684
:10475000124C89B04E4623682E431B6831009846A0
:1047600060681C2301AAC047002810D00622380028
:1047700002A914F03BF8002809D1236831006068D1
:104780009B68984709B0C0BCB946B046F0BD01353A
:10479000102DDFD1F6E7C046004C5442344D0020C6
:1047A000F0B54E46DE46574645460023E0B591B08B
:1047B0008346984699469A4600243C4E06910792B5
:1047C0000493059317E0062258460AA914F00EF840
:1047D000002800D10595099B9A4500D29A46424689
:1047E000002A03D04B4501D345464B460134A84629
:1047F0009946102C0ED02E4D336825431F68290092
:104800001C23706809AAB8470028DCD1013404953C
:10481000102CF0D14346059D264C049F02932200A4
:10482000972301202449019700950AF0EFFA002D03
:1048300031D1002F2AD0049FA623220001201F4936
:1048400000970AF0E3FA062259460AA8FEF7F6F99D
:1048500004AB9C461E20102206996044FEF7EEF938
:10486000079A04ABDA85534601330993336839005C
:104870005D6870681C2309AAA84700280ED111B0F2
:10488000F0BCBB46B246A946A046F0BD43460493E1
:10489000002BD0D1F3E7059B0493CCE7B123220092
:1048A000022007490AF0B2FAE9E7C046344D002079
:1048B000004C54429C910110B8910110FC910110E0
:1048C00018920110F0B557464E46DE464546224B3B
:1048D000E0B59946214B00249B46214B07009A46A0
:1048E0008DB0204E029103924D46336825431B68DC
:1048F0002900984670681C2305AAC047002825D0C7
:1049000006A803F0DBFD5A46514601905F230120C3
:1049100000950AF07BFA0622380006A913F066FF1C
:10492000002813D102AB9C46162110220298614444
:10493000FEF784F9012002ABDB8C039A13800DB0E3
:10494000F0BCBB46B246A946A046F0BD0134102CCF
:10495000CAD10020F3E7C046004C54429C9101109C
:1049600038920110344D00207047C0467047C04651
:10497000014B03C301487047344D00205092011091
:10498000F0B51C4F87B03900684603F0EFF9684670
:1049900003F0F2F900282BD0684603F003FA837D78
:1049A0000400012BF3D1112201338375124E2433FD
:1049B000C254390003A8358803F0D8F905E003A8EC
:1049C00003F0F0F9438CED1AADB203A803F0D4F96B
:1049D0000028F4D121003388A2885B1B2384074B75
:1049E00060841A800648074AA584083101F078FEE1
:1049F00007B0F0BD644700205E4D0020604D0020F0
:104A0000094A001024110000F0B5454657464E46AD
:104A1000DE46E0B5C54BC64F8BB0190006A81500A1
:104A200098463E8803F0A2F906A803F0A5F90028ED
:104A300000D166E106A803F0B5F982880400964229
:104A4000F2D12B78912B37D0942B28D10421280038
:104A500003F04AFC08210600280003F045FCAB7A6D
:104A600007009846B34B9E4200D12AE11ED8042E7F
:104A700001D00D2E13D10621280003F035FC20288B
:104A800000D9C1E04246AC4B0621DA5528009946D0
:104A900003F02AFC0137BBB2834200D1B7E10BB06F
:104AA000F0BCBB46B246A946A046F0BDA34BF318E6
:104AB0009BB2012BF3D8DEE7AD78002D00D1B2E038
:104AC000812D37D16946EF2300260B76ED3B8B769F
:104AD00006A803213E8003F017FC6B461E21200030
:104AE0005D776944083003F04BFC0C21E28806A88E
:104AF00003F00AFC26216A46E37D521813700D2349
:104B00006A4653768E4BA1881D680F23042006AA9F
:104B1000A847608AE5896682E681002871D1002D68
:104B200000D0FFE02100404603F008F9200003F028
:104B3000A1F9B4E7E37E022BC4D16B46EF211976CD
:104B40000E23694606A88B76032103F0DDFB0521C1
:104B5000A28B06A803F0D8FB0721E28B06A803F07E
:104B6000D3FB07236A46764E537604200233A1888E
:104B7000356806AAA847E37D9946002B00D02CE1B2
:104B80000323A37505339B462300A3440E330093F0
:104B9000112259466B4B6C480DF09CFD8246002853
:104BA00000D17CE74B46EF223B806B461A7602230E
:104BB0006A4693760321A28806A803F0A5FB6B46FC
:104BC00052461E215A775846694403F0D9FB0C21FE
:104BD000E28806A803F098FB26216A46E37D521876
:104BE00013700D236A465376042035680233A1887A
:104BF00006AAA8474B46608AE5896382E3810028BC
:104C00008DD00DF017FE8AE70621280003F06CFB1B
:104C100020230093A52301904C4A02204C499B007D
:104C20000AF0F4F83BE7238A002B02D0A38A002B7A
:104C300005D1E37E022B00D17FE7112542E76B46C9
:104C4000EF27E5756A461F760E230321937606A8A3
:104C5000320003F059FB0521A28B06A803F054FB98
:104C60000721E28B06A803F04FFB07236A46344D69
:104C700053762E680420A188023306AAB047E67D49
:104C8000002E75D0012308226376E3766B46A27569
:104C90001F766A460D2393760321A28806A803F0A7
:104CA00033FB26236A46E35C2D685377042353764F
:104CB000A1880420023306AAA847E0890BF09AF9DC
:104CC000EDE6244D002825D10123012100222B707F
:104CD000214B19604346184E3000B35401F066FD75
:104CE000062800D1A3E12A781C4B00920120174A24
:104CF0001B490AF08BF8002307222B702633E2545D
:104D0000CDE63B8802200093104A164B16490AF064
:104D10007DF8C4E62A78092A00D9C0E61349930031
:104D2000CB589F4628000DF085FDFBE66447002028
:104D3000604D00200602000078470020F1FDFFFFD3
:104D400024470020FFFF0000C1530010749201109F
:104D5000F0920110894D0020D01B002009020000B4
:104D600080920110210200003C9301107493011005
:104D70000323A37505339A462300A2440E33228AE7
:104D800051460093BD48BE4B0DF0A4FC814600285F
:104D900000D184E66B466A461F7602239376032190
:104DA000A28806A803F0B0FA6B464A461E215A773D
:104DB0005046694403F0E4FA0C21E28806A803F0A7
:104DC000A3FA26216A46E37D521813700D236A4622
:104DD0005376A1882D68023398E601236376073362
:104DE000A3750023EF22E3766B461A760D236A46FD
:104DF00093760321A28806A803F086FA26236A4642
:104E0000E35C3568537704235376A18851E79D4BC3
:104E10009E4200D17DE101339E4200D30FE1042E7A
:104E200000D11FE10D2E00D039E6802702AD4946A2
:104E3000280001F057FD7F0002E0280001F0B2FDDC
:104E4000280001F09FFD002800D128E6280001F08D
:104E500093FD0628F1D1280001F09AFD010004A875
:104E600001F040FD142399469C239B009846A144E1
:104E700002E004A801F096FD04A801F083FD0028DB
:104E8000DBD004A801F078FD0628F2D104A801F0D7
:104E90007FFD010006A801F025FD06A801F078FDC0
:104EA000060001F083FC0328E3D1300001F0E6FCAA
:104EB000B842DED106A801F065FD0028D9D006A8C9
:104EC00001F070FD06A801F063FD494601F0C4FC45
:104ED000A38A012000936C4A43466C4909F096FF6F
:104EE000C7E7638CA18C994200D8FDE64146684A29
:104EF0001068228CC3189954664A618C136801317A
:104F000001331360644A89B212686184934200D20B
:104F1000C5E526230022E254238CC01803F05CFA76
:104F20000A232B70BBE544465A4B5C48196844542D
:104F3000594C4A1C21681A608A4200D2AFE500220F
:104F40001A6001F043FC092320602B70A7E5514B48
:104F500051491A68096801321A608A4200D29EE5F6
:104F600000221A6005232B7099E54A494B480A68CC
:104F7000494C531C0B60414681542268934200D235
:104F80008DE501F03FFC072320602B7087E5414A47
:104F9000424C13682000591C11604246E25401F053
:104FA00009FC3D4E3060200001F000FC042800D1D7
:104FB000BFE03368012B00D8BEE006232B706EE5FE
:104FC0004446344B354819684A1C445432491A60E7
:104FD00009688A4200D262E5C2E72E4A2F4E136862
:104FE0003000591C11604246F25401F0DFFB0628E4
:104FF00000D078E6300001F0DDFB274B1860042379
:105000002B704CE54446234B244819684A1C4454F1
:1050100021491A6009688A4200D240E500221A60DC
:1050200003232B703BE51B4B1A68511C51E63000E3
:1050300001F0C0FB184B186002232B702FE59E4235
:1050400000D02CE5484601F0B1FB012800D026E550
:10505000484606A901F000FC002877D06B461B8B60
:10506000E3831CE502AD4946280001F03BFC8023A8
:1050700027005B009846103715E0C046C15300106A
:10508000FFFF00000F02000074920110CC9201108B
:1050900068470020D01B0020CC1B00207847002050
:1050A000280001F07FFC280001F06CFC002800D1F2
:1050B000F5E4280001F060FC0628F1D1280001F099
:1050C00067FC010006A801F00DFC06A801F060FCD9
:1050D000060001F06BFB0328E2D1300001F0CEFBAB
:1050E0004045DDD106A801F04DFC0028D8D006A827
:1050F00001F058FC06A801F04BFC390001F0ACFBB4
:10510000238A01200093134A134B144909F07EFEB1
:10511000C6E7484601F04AFB012800D0BFE44846F4
:1051200006A901F099FB00280DD06B461B8BA383C9
:10513000B5E408232B70B2E4200001F063FB0723E1
:1051400030602B70ABE4064BA383A8E4044BE383ED
:10515000A5E4C0467492011059020000AC920110FF
:10516000FFFF000010B584B004000A4901A802F056
:10517000FDFD01A802F000FE002809D001A802F000
:1051800011FE8388A342F4D1034A038C1068C0182F
:1051900004B010BD644700206847002010B584B0FB
:1051A0000400094901A802F0E1FD01A802F0E4FDB4
:1051B000002806D001A802F0F5FD8388A342F4D1AF
:1051C000408C04B010BDC046644700200B4B70B546
:1051D00018600B4B0B4D198004F086FE0A4C2A0018
:1051E0000300132120000DF0BDFB04F07DFE2A001A
:1051F0000300112120000DF0B5FB70BD68470020B1
:105200005E4D0020FFFF0000C1530010014B1860ED
:105210007047C0462447002030B585B004000D001B
:1052200001A80E4902F0A2FD01A802F0A5FD002888
:1052300012D001A802F0B6FD82880300A242F3D189
:10524000827D0C20032A01D005B030BDD889DD76DF
:105250000DF012FB0020F7E70220F5E7644700207D
:10526000F0B54746CE4680B505000F00160087B062
:10527000002A18D0334B03A81900984602F076FD97
:1052800003A802F079FD002813D003A802F08AFDDC
:105290000100040006222800083113F0A7FA0028B4
:1052A000EED1002C05D00C2007B0C0BCB946B046EA
:1052B000F0BD02F0D1FD041E3AD00023224A8375CE
:1052C000224913888B4231D001339BB21380A380D3
:1052D0000023E3812361A382013BE38009339946E4
:1052E000A144062229004846FDF7A8FC21004046BB
:1052F00002F016FDA388112233800123E3822533B7
:10530000E776E254002F06D01148124B436001F0BB
:10531000C7F90020C8E703230E342372112249463F
:105320000A4B00940C480DF0D5F9BDE70123CDE7F9
:1053300064230220094A0A49FF3309F067FD562019
:10534000B2E7C046644700205C4D0020FFFF00002C
:105350006C47002081490010C15300107492011065
:105360009C93011010B584B00400144901A802F008
:10537000FDFC01A802F000FD002811D001A802F0F8
:1053800011FD8388A342F4D1837D002B08D0113B0B
:10539000012B05D9438A002B0AD1C389002B01D1E7
:1053A00004B010BD1222827518000DF043FAF7E721
:1053B0001122827518000DF03DFAF1E764470020D4
:1053C000F0B54546DE4657464E46E0B50C001500A2
:1053D00098468BB004284CD0062843D1C64B06AE65
:1053E00019003000994602F0C1FC300002F0C4FC04
:1053F000002837D0300002F0D5FC438A0700A342D2
:1054000013D0C389A342F0D12B781A09012A00D105
:1054100081E30F241C40BB7D043BDBB20A2B00D987
:10542000F6E1B6499B00CB589F46EF230C22EC1FB8
:1054300023706B1F1A7082880321200002F064FF22
:1054400042460521200002F05FFF4346063D05333A
:105450002B704346AA4A0733156804202200B988F6
:105460009BB2A8470BB0F0BCBB46B246A946A046CB
:10547000F0BD1378722B00D102E14BD8702B00D114
:105480007FE0712BEED10221100002F02DFF9A4B2C
:1054900006AE050019003000994602F067FC3000A6
:1054A00002F06AFC0028DDD0300002F07BFC438A69
:1054B0000400AB4200D1BDE2C389AB42EFD100236F
:1054C0000325C381EF333370B57082880321300028
:1054D00002F01AFF8A4B757032001D680420052304
:1054E000A188A847658C002D00D06BE10023608A5D
:1054F000E58923626382E381002800D05FE1002D0B
:1055000000D022E32100484602F018FC200002F0FF
:10551000B1FCA7E7792BA5D10221100002F0E4FE2F
:1055200006AE05007449300002F020FC300002F0A5
:1055300023FC002800D195E7300002F033FC438AB9
:105540000400C2899D4200D186E1AA42EED1827D4B
:10555000043AD2B2092A0BD86A4992008A5897466F
:10556000627E002A01D000F08BFC9D4200D176E1E2
:105570002C23E35C002B00D174E7E0890AF03AFDAC
:1055800070E704AFD01C3900062202F0EDFE5A4B42
:1055900006AE19003000994602F0E8FB300002F038
:1055A000EBFB002800D1C5E2300002F0FBFB082332
:1055B0009A468244040006225146380013F016F938
:1055C00080460028EAD1002C00D1B3E2AB789B469C
:1055D000002B00D0BFE0E37D9846002B00D14DE2C8
:1055E000A37D032B00D10EE3072B00D03AE7EF2376
:1055F00033709846ED3BB370A2880321300002F06F
:1056000083FE5B461E2173715046694402F0B8FE6A
:105610000C213000E28802F077FEE37D384DB37351
:105620000D2373709946320002330420A1882F683D
:10563000B8470823A375E37E002B00D04DE3434613
:1056400033704B46B3703000A288032102F05CFE39
:105650002623E35C3200737104237370A188042055
:105660002D680233A8470123E08963760AF0C2FC63
:10567000F8230120244A25499B0009F0C7FBF1E6E5
:1056800004AF901C3900062202F06EFE1A4B06AEE3
:1056900019003000994602F069FB300002F06CFB03
:1056A000002839D0300002F07DFB01008046062240
:1056B0003800083113F09AF80028EED10A212800AA
:1056C00002F012FE11283ED013282ED14346002BA3
:1056D00003D09B7D072B00D1EAE2380002F0EEFEFA
:1056E0000B4B0090084A02200A4909F08FFB20006A
:1056F0000DF0FEF8B6E6C04664470020949601100F
:1057000024470020C09601107492011030950110BA
:10571000AA030000509401100A21280002F0E4FDC1
:10572000112800D115E21328D7D0380002F0C6FEA8
:10573000C64B0090C64A0120C64909F067FB20000D
:105740000DF0D6F88EE64346002B00D101E2200092
:105750000DF0CEF886E6380002F0B0FE5B46BC4A9B
:10576000BD4901930090BD4B012009F04FFBEF2391
:105770003370ED3BB370A2880321300002F0C4FD0A
:105780005B461E2173715046694402F0F9FD0C21FD
:105790003000E28802F0B8FDE37D0420B3730D23EE
:1057A0007370AF4B32001D68A1880F23A847434692
:1057B000608AE5896382E381002800D19FE60DF0CD
:1057C00039F89CE6A74A238C1068A74AEF1812887C
:1057D000BFB2C119D21BC01813F02CF849463000D3
:1057E00002F0C4FA300002F0C7FA002800D17DE6CA
:1057F000300002F0D7FA8442F4D0038C9F42F1D8F3
:105800005B1B0384300002F0B7FA0028F0D16DE68C
:105810000120964B8E4A964909F0F8FA0823BB7589
:1058200020E6BB7E002B00D11CE60025BD76002CB7
:1058300000D081E2082398463B00B8441233BA8A6C
:10584000414600938B488C4B0CF044FF051E00D062
:105850003AE30723BB7505E6AA4200D172E3A27DB5
:105860000F2A00D084E60823A3752033E55C783343
:105870001D430AF0B9F90AF0B1F90570638D7E4A4B
:10588000934200D1A3E2437002250223216BA28E32
:10589000C018FDF7D3F9A18E608A691889B20AF0A1
:1058A000EDF9DFE5BB7E002B00D1DBE50023BB7605
:1058B000002C01D1FB7E3B76EF233370E43BB370C9
:1058C0003000BA88032102F01FFD74713B7E320064
:1058D000B37105237370624B04201C68B9880723D9
:1058E000A047BFE53B7E98460A2A06D16B789846CA
:1058F000012343459B415B429C00EF233370E53B12
:10590000B37003213000BA8802F0FEFC4346B37145
:1059100005237370524B74711C680723B9883200D9
:105920000420A0477AE7EF233370E63BB3700321EE
:105930003000BA8802F0E8FC04237370484B74719D
:10594000B9881C680623EAE7002A00D08DE1EF231E
:105950003370E73BB3703000BA88032102F0D4FC07
:10596000300074710022062102F0CEFC0623737011
:105970003B4B32001C6804200823B988A0474DE740
:105980002C220121A35C194200D084E2022018429B
:1059900000D08DE2042007001F40184200D08DE2A5
:1059A000637E002B00D1E3E57023E27E677613432C
:1059B0003370A1760122310028000AF077FB638A58
:1059C000D3E560233370523BA375F3E72823E65CED
:1059D00028331E43443BA3750AF006F90AF0FEF88B
:1059E0000670638D244A934200D1F3E1437002268E
:1059F0000223C018A28E216BFDF720F9A18EE08949
:105A0000711889B20AF03AF9638AAEE52823402278
:105A1000E35C13433370638D174A934200D1DCE19A
:105A2000022273700A233100A37528000AF03EFB9E
:105A3000638A9AE500234382837D112B00D011E510
:105A40001223E089A3750CF0F5FE0BE5B603000008
:105A50007492011050940110CC940110C7030000FF
:105A600024470020684700205E4D002063030000AB
:105A7000FC930110C1530010FFFF0000A37D032B16
:105A800000D1CBE0072B00D0ECE40823A375A3885A
:105A900001200293638AE54A0193E389E449009374
:105AA0008223DB0009F0B2F9EF2333709946ED3B16
:105AB000B370A2883000032102F026FC43461E2169
:105AC00073715046694402F05BFC3000E2880C219F
:105AD00002F01AFCE37DD74DB3730D237370984623
